{
  "contractName": "HawalaCoin",
  "abi": [
    {
      "inputs": [],
      "stateMutability": "nonpayable",
      "type": "constructor"
    },
    {
      "anonymous": false,
      "inputs": [
        {
          "indexed": true,
          "internalType": "address",
          "name": "account",
          "type": "address"
        },
        {
          "indexed": true,
          "internalType": "address",
          "name": "operator",
          "type": "address"
        },
        {
          "indexed": false,
          "internalType": "bool",
          "name": "approved",
          "type": "bool"
        }
      ],
      "name": "ApprovalForAll",
      "type": "event"
    },
    {
      "anonymous": false,
      "inputs": [
        {
          "indexed": true,
          "internalType": "address",
          "name": "previousOwner",
          "type": "address"
        },
        {
          "indexed": true,
          "internalType": "address",
          "name": "newOwner",
          "type": "address"
        }
      ],
      "name": "OwnershipTransferred",
      "type": "event"
    },
    {
      "anonymous": false,
      "inputs": [
        {
          "indexed": true,
          "internalType": "address",
          "name": "operator",
          "type": "address"
        },
        {
          "indexed": true,
          "internalType": "address",
          "name": "from",
          "type": "address"
        },
        {
          "indexed": true,
          "internalType": "address",
          "name": "to",
          "type": "address"
        },
        {
          "indexed": false,
          "internalType": "uint256[]",
          "name": "ids",
          "type": "uint256[]"
        },
        {
          "indexed": false,
          "internalType": "uint256[]",
          "name": "values",
          "type": "uint256[]"
        }
      ],
      "name": "TransferBatch",
      "type": "event"
    },
    {
      "anonymous": false,
      "inputs": [
        {
          "indexed": true,
          "internalType": "address",
          "name": "operator",
          "type": "address"
        },
        {
          "indexed": true,
          "internalType": "address",
          "name": "from",
          "type": "address"
        },
        {
          "indexed": true,
          "internalType": "address",
          "name": "to",
          "type": "address"
        },
        {
          "indexed": false,
          "internalType": "uint256",
          "name": "id",
          "type": "uint256"
        },
        {
          "indexed": false,
          "internalType": "uint256",
          "name": "value",
          "type": "uint256"
        }
      ],
      "name": "TransferSingle",
      "type": "event"
    },
    {
      "anonymous": false,
      "inputs": [
        {
          "indexed": false,
          "internalType": "string",
          "name": "value",
          "type": "string"
        },
        {
          "indexed": true,
          "internalType": "uint256",
          "name": "id",
          "type": "uint256"
        }
      ],
      "name": "URI",
      "type": "event"
    },
    {
      "inputs": [
        {
          "internalType": "address",
          "name": "account",
          "type": "address"
        },
        {
          "internalType": "uint256",
          "name": "id",
          "type": "uint256"
        }
      ],
      "name": "balanceOf",
      "outputs": [
        {
          "internalType": "uint256",
          "name": "",
          "type": "uint256"
        }
      ],
      "stateMutability": "view",
      "type": "function"
    },
    {
      "inputs": [
        {
          "internalType": "address[]",
          "name": "accounts",
          "type": "address[]"
        },
        {
          "internalType": "uint256[]",
          "name": "ids",
          "type": "uint256[]"
        }
      ],
      "name": "balanceOfBatch",
      "outputs": [
        {
          "internalType": "uint256[]",
          "name": "",
          "type": "uint256[]"
        }
      ],
      "stateMutability": "view",
      "type": "function"
    },
    {
      "inputs": [
        {
          "internalType": "address",
          "name": "account",
          "type": "address"
        },
        {
          "internalType": "address",
          "name": "operator",
          "type": "address"
        }
      ],
      "name": "isApprovedForAll",
      "outputs": [
        {
          "internalType": "bool",
          "name": "",
          "type": "bool"
        }
      ],
      "stateMutability": "view",
      "type": "function"
    },
    {
      "inputs": [
        {
          "internalType": "uint256",
          "name": "",
          "type": "uint256"
        }
      ],
      "name": "missions",
      "outputs": [
        {
          "internalType": "address",
          "name": "csoAddr",
          "type": "address"
        },
        {
          "internalType": "address",
          "name": "agentAddr",
          "type": "address"
        },
        {
          "internalType": "uint256",
          "name": "tokenId",
          "type": "uint256"
        },
        {
          "internalType": "uint256",
          "name": "amount",
          "type": "uint256"
        },
        {
          "internalType": "bool",
          "name": "completed",
          "type": "bool"
        }
      ],
      "stateMutability": "view",
      "type": "function"
    },
    {
      "inputs": [
        {
          "internalType": "address",
          "name": "",
          "type": "address"
        },
        {
          "internalType": "address",
          "name": "",
          "type": "address"
        },
        {
          "internalType": "uint256[]",
          "name": "",
          "type": "uint256[]"
        },
        {
          "internalType": "uint256[]",
          "name": "",
          "type": "uint256[]"
        },
        {
          "internalType": "bytes",
          "name": "",
          "type": "bytes"
        }
      ],
      "name": "onERC1155BatchReceived",
      "outputs": [
        {
          "internalType": "bytes4",
          "name": "",
          "type": "bytes4"
        }
      ],
      "stateMutability": "nonpayable",
      "type": "function"
    },
    {
      "inputs": [
        {
          "internalType": "address",
          "name": "",
          "type": "address"
        },
        {
          "internalType": "address",
          "name": "",
          "type": "address"
        },
        {
          "internalType": "uint256",
          "name": "",
          "type": "uint256"
        },
        {
          "internalType": "uint256",
          "name": "",
          "type": "uint256"
        },
        {
          "internalType": "bytes",
          "name": "",
          "type": "bytes"
        }
      ],
      "name": "onERC1155Received",
      "outputs": [
        {
          "internalType": "bytes4",
          "name": "",
          "type": "bytes4"
        }
      ],
      "stateMutability": "nonpayable",
      "type": "function"
    },
    {
      "inputs": [],
      "name": "owner",
      "outputs": [
        {
          "internalType": "address",
          "name": "",
          "type": "address"
        }
      ],
      "stateMutability": "view",
      "type": "function"
    },
    {
      "inputs": [],
      "name": "renounceOwnership",
      "outputs": [],
      "stateMutability": "nonpayable",
      "type": "function"
    },
    {
      "inputs": [
        {
          "internalType": "address",
          "name": "from",
          "type": "address"
        },
        {
          "internalType": "address",
          "name": "to",
          "type": "address"
        },
        {
          "internalType": "uint256[]",
          "name": "ids",
          "type": "uint256[]"
        },
        {
          "internalType": "uint256[]",
          "name": "amounts",
          "type": "uint256[]"
        },
        {
          "internalType": "bytes",
          "name": "data",
          "type": "bytes"
        }
      ],
      "name": "safeBatchTransferFrom",
      "outputs": [],
      "stateMutability": "nonpayable",
      "type": "function"
    },
    {
      "inputs": [
        {
          "internalType": "address",
          "name": "from",
          "type": "address"
        },
        {
          "internalType": "address",
          "name": "to",
          "type": "address"
        },
        {
          "internalType": "uint256",
          "name": "id",
          "type": "uint256"
        },
        {
          "internalType": "uint256",
          "name": "amount",
          "type": "uint256"
        },
        {
          "internalType": "bytes",
          "name": "data",
          "type": "bytes"
        }
      ],
      "name": "safeTransferFrom",
      "outputs": [],
      "stateMutability": "nonpayable",
      "type": "function"
    },
    {
      "inputs": [
        {
          "internalType": "address",
          "name": "operator",
          "type": "address"
        },
        {
          "internalType": "bool",
          "name": "approved",
          "type": "bool"
        }
      ],
      "name": "setApprovalForAll",
      "outputs": [],
      "stateMutability": "nonpayable",
      "type": "function"
    },
    {
      "inputs": [
        {
          "internalType": "address",
          "name": "newOwner",
          "type": "address"
        }
      ],
      "name": "transferOwnership",
      "outputs": [],
      "stateMutability": "nonpayable",
      "type": "function"
    },
    {
      "inputs": [
        {
          "internalType": "uint256",
          "name": "",
          "type": "uint256"
        }
      ],
      "name": "uri",
      "outputs": [
        {
          "internalType": "string",
          "name": "",
          "type": "string"
        }
      ],
      "stateMutability": "view",
      "type": "function"
    },
    {
      "inputs": [
        {
          "internalType": "address",
          "name": "",
          "type": "address"
        }
      ],
      "name": "users",
      "outputs": [
        {
          "internalType": "enum HawalaCoin.Role",
          "name": "",
          "type": "uint8"
        }
      ],
      "stateMutability": "view",
      "type": "function"
    },
    {
      "inputs": [
        {
          "internalType": "bytes4",
          "name": "interfaceId",
          "type": "bytes4"
        }
      ],
      "name": "supportsInterface",
      "outputs": [
        {
          "internalType": "bool",
          "name": "",
          "type": "bool"
        }
      ],
      "stateMutability": "view",
      "type": "function"
    },
    {
      "inputs": [
        {
          "internalType": "address",
          "name": "addr",
          "type": "address"
        },
        {
          "internalType": "enum HawalaCoin.Role",
          "name": "role",
          "type": "uint8"
        }
      ],
      "name": "addUser",
      "outputs": [],
      "stateMutability": "nonpayable",
      "type": "function"
    },
    {
      "inputs": [
        {
          "internalType": "address",
          "name": "donorAddr",
          "type": "address"
        },
        {
          "internalType": "address",
          "name": "clientAddr",
          "type": "address"
        },
        {
          "internalType": "uint256",
          "name": "amount",
          "type": "uint256"
        }
      ],
      "name": "mint",
      "outputs": [],
      "stateMutability": "nonpayable",
      "type": "function"
    },
    {
      "inputs": [
        {
          "internalType": "address",
          "name": "clientAddr",
          "type": "address"
        },
        {
          "internalType": "uint256",
          "name": "tokenId",
          "type": "uint256"
        },
        {
          "internalType": "uint256",
          "name": "amount",
          "type": "uint256"
        }
      ],
      "name": "burn",
      "outputs": [],
      "stateMutability": "nonpayable",
      "type": "function"
    },
    {
      "inputs": [
        {
          "internalType": "address",
          "name": "csoAddr",
          "type": "address"
        },
        {
          "internalType": "address",
          "name": "agentAddr",
          "type": "address"
        },
        {
          "internalType": "uint256",
          "name": "tokenId",
          "type": "uint256"
        },
        {
          "internalType": "uint256",
          "name": "amount",
          "type": "uint256"
        }
      ],
      "name": "createMission",
      "outputs": [],
      "stateMutability": "nonpayable",
      "type": "function"
    },
    {
      "inputs": [
        {
          "internalType": "address",
          "name": "agentAddr",
          "type": "address"
        },
        {
          "internalType": "uint256",
          "name": "missionId",
          "type": "uint256"
        }
      ],
      "name": "completeMission",
      "outputs": [],
      "stateMutability": "nonpayable",
      "type": "function"
    },
    {
      "inputs": [],
      "name": "currentTokenId",
      "outputs": [
        {
          "internalType": "uint256",
          "name": "",
          "type": "uint256"
        }
      ],
      "stateMutability": "view",
      "type": "function"
    },
    {
      "inputs": [],
      "name": "currentMissionId",
      "outputs": [
        {
          "internalType": "uint256",
          "name": "",
          "type": "uint256"
        }
      ],
      "stateMutability": "view",
      "type": "function"
    }
  ],
  "bytecode": "0x60806040523480156200001157600080fd5b506040518060200160405280600081525062000033816200005a60201b60201c565b5062000054620000486200007660201b60201c565b6200007e60201b60201c565b62000259565b80600290805190602001906200007292919062000144565b5050565b600033905090565b6000600360009054906101000a900473ffffffffffffffffffffffffffffffffffffffff16905081600360006101000a81548173ffffffffffffffffffffffffffffffffffffffff021916908373ffffffffffffffffffffffffffffffffffffffff1602179055508173ffffffffffffffffffffffffffffffffffffffff168173ffffffffffffffffffffffffffffffffffffffff167f8be0079c531659141344cd1fd0a4f28419497f9722a3daafe3b4186f6b6457e060405160405180910390a35050565b828054620001529062000223565b90600052602060002090601f016020900481019282620001765760008555620001c2565b82601f106200019157805160ff1916838001178555620001c2565b82800160010185558215620001c2579182015b82811115620001c1578251825591602001919060010190620001a4565b5b509050620001d19190620001d5565b5090565b5b80821115620001f0576000816000905550600101620001d6565b5090565b7f4e487b7100000000000000000000000000000000000000000000000000000000600052602260045260246000fd5b600060028204905060018216806200023c57607f821691505b60208210811415620002535762000252620001f4565b5b50919050565b613ce580620002696000396000f3fe608060405234801561001057600080fd5b50600436106101405760003560e01c80638da5cb5b116100b8578063c6c3bbe61161007c578063c6c3bbe614610389578063e985e9c5146103a5578063f23a6e61146103d5578063f242432a14610405578063f2fde38b14610421578063f5298aca1461043d57610140565b80638da5cb5b146102d35780639c3eead9146102f1578063a22cb4651461030d578063a87430ba14610329578063bc197c811461035957610140565b80630e89341c1161010a5780630e89341c146101fd5780631d7194b71461022d5780632c8fe526146102495780632eb2c2d61461027d5780634e1273f414610299578063715018a6146102c957610140565b80629a9b7b14610145578062fdd58e1461016357806301ffc9a71461019357806302d3735e146101c357806305158f46146101e1575b600080fd5b61014d610459565b60405161015a919061223c565b60405180910390f35b61017d600480360381019061017891906122f5565b61046a565b60405161018a919061223c565b60405180910390f35b6101ad60048036038101906101a8919061238d565b610533565b6040516101ba91906123d5565b60405180910390f35b6101cb610545565b6040516101d8919061223c565b60405180910390f35b6101fb60048036038101906101f691906122f5565b610556565b005b610217600480360381019061021291906123f0565b6106a0565b60405161022491906124b6565b60405180910390f35b610247600480360381019061024291906124d8565b610734565b005b610263600480360381019061025e91906123f0565b610956565b60405161027495949392919061254e565b60405180910390f35b6102976004803603810190610292919061279e565b6109d9565b005b6102b360048036038101906102ae9190612930565b610a7a565b6040516102c09190612a66565b60405180910390f35b6102d1610b93565b005b6102db610c1b565b6040516102e89190612a88565b60405180910390f35b61030b60048036038101906103069190612ac8565b610c45565b005b61032760048036038101906103229190612b34565b610cb0565b005b610343600480360381019061033e9190612b74565b610e31565b6040516103509190612c18565b60405180910390f35b610373600480360381019061036e919061279e565b610e51565b6040516103809190612c42565b60405180910390f35b6103a3600480360381019061039e9190612c5d565b610e66565b005b6103bf60048036038101906103ba9190612cb0565b610f1d565b6040516103cc91906123d5565b60405180910390f35b6103ef60048036038101906103ea9190612cf0565b610fb1565b6040516103fc9190612c42565b60405180910390f35b61041f600480360381019061041a9190612cf0565b610fc6565b005b61043b60048036038101906104369190612b74565b611067565b005b61045760048036038101906104529190612d87565b61115f565b005b600061046560046111dd565b905090565b60008073ffffffffffffffffffffffffffffffffffffffff168373ffffffffffffffffffffffffffffffffffffffff1614156104db576040517f08c379a00000000000000000000000000000000000000000000000000000000081526004016104d290612e4c565b60405180910390fd5b60008083815260200190815260200160002060008473ffffffffffffffffffffffffffffffffffffffff1673ffffffffffffffffffffffffffffffffffffffff16815260200190815260200160002054905092915050565b600061053e826111eb565b9050919050565b600061055160066111dd565b905090565b3373ffffffffffffffffffffffffffffffffffffffff168273ffffffffffffffffffffffffffffffffffffffff16146105c4576040517f08c379a00000000000000000000000000000000000000000000000000000000081526004016105bb90612eb8565b60405180910390fd5b60006007600083815260200190815260200160002060020154905060006007600084815260200190815260200160002060030154905060016007600085815260200190815260200160002060040160006101000a81548160ff0219169083151502179055503073ffffffffffffffffffffffffffffffffffffffff1663f242432a308685856040518563ffffffff1660e01b81526004016106689493929190612f0f565b600060405180830381600087803b15801561068257600080fd5b505af1158015610696573d6000803e3d6000fd5b5050505050505050565b6060600280546106af90612f96565b80601f01602080910402602001604051908101604052809291908181526020018280546106db90612f96565b80156107285780601f106106fd57610100808354040283529160200191610728565b820191906000526020600020905b81548152906001019060200180831161070b57829003601f168201915b50505050509050919050565b3373ffffffffffffffffffffffffffffffffffffffff168473ffffffffffffffffffffffffffffffffffffffff16146107a2576040517f08c379a000000000000000000000000000000000000000000000000000000000815260040161079990613014565b60405180910390fd5b60006107ae60066111dd565b90506040518060a001604052808673ffffffffffffffffffffffffffffffffffffffff1681526020018573ffffffffffffffffffffffffffffffffffffffff168152602001848152602001838152602001600015158152506007600083815260200190815260200160002060008201518160000160006101000a81548173ffffffffffffffffffffffffffffffffffffffff021916908373ffffffffffffffffffffffffffffffffffffffff16021790555060208201518160010160006101000a81548173ffffffffffffffffffffffffffffffffffffffff021916908373ffffffffffffffffffffffffffffffffffffffff160217905550604082015181600201556060820151816003015560808201518160040160006101000a81548160ff0219169083151502179055509050503073ffffffffffffffffffffffffffffffffffffffff1663f242432a863086866040518563ffffffff1660e01b815260040161091d9493929190612f0f565b600060405180830381600087803b15801561093757600080fd5b505af115801561094b573d6000803e3d6000fd5b505050505050505050565b60076020528060005260406000206000915090508060000160009054906101000a900473ffffffffffffffffffffffffffffffffffffffff16908060010160009054906101000a900473ffffffffffffffffffffffffffffffffffffffff16908060020154908060030154908060040160009054906101000a900460ff16905085565b6109e1611265565b73ffffffffffffffffffffffffffffffffffffffff168573ffffffffffffffffffffffffffffffffffffffff161480610a275750610a2685610a21611265565b610f1d565b5b610a66576040517f08c379a0000000000000000000000000000000000000000000000000000000008152600401610a5d906130a6565b60405180910390fd5b610a73858585858561126d565b5050505050565b60608151835114610ac0576040517f08c379a0000000000000000000000000000000000000000000000000000000008152600401610ab790613138565b60405180910390fd5b6000835167ffffffffffffffff811115610add57610adc6125a6565b5b604051908082528060200260200182016040528015610b0b5781602001602082028036833780820191505090505b50905060005b8451811015610b8857610b58858281518110610b3057610b2f613158565b5b6020026020010151858381518110610b4b57610b4a613158565b5b602002602001015161046a565b828281518110610b6b57610b6a613158565b5b60200260200101818152505080610b81906131b6565b9050610b11565b508091505092915050565b610b9b611265565b73ffffffffffffffffffffffffffffffffffffffff16610bb9610c1b565b73ffffffffffffffffffffffffffffffffffffffff1614610c0f576040517f08c379a0000000000000000000000000000000000000000000000000000000008152600401610c069061324b565b60405180910390fd5b610c196000611581565b565b6000600360009054906101000a900473ffffffffffffffffffffffffffffffffffffffff16905090565b80600560008473ffffffffffffffffffffffffffffffffffffffff1673ffffffffffffffffffffffffffffffffffffffff16815260200190815260200160002060006101000a81548160ff02191690836004811115610ca757610ca6612ba1565b5b02179055505050565b8173ffffffffffffffffffffffffffffffffffffffff16610ccf611265565b73ffffffffffffffffffffffffffffffffffffffff161415610d26576040517f08c379a0000000000000000000000000000000000000000000000000000000008152600401610d1d906132dd565b60405180910390fd5b8060016000610d33611265565b73ffffffffffffffffffffffffffffffffffffffff1673ffffffffffffffffffffffffffffffffffffffff16815260200190815260200160002060008473ffffffffffffffffffffffffffffffffffffffff1673ffffffffffffffffffffffffffffffffffffffff16815260200190815260200160002060006101000a81548160ff0219169083151502179055508173ffffffffffffffffffffffffffffffffffffffff16610de0611265565b73ffffffffffffffffffffffffffffffffffffffff167f17307eab39ab6107e8899845ad3d59bd9653f200f220920489ca2b5937696c3183604051610e2591906123d5565b60405180910390a35050565b60056020528060005260406000206000915054906101000a900460ff1681565b600063bc197c8160e01b905095945050505050565b3373ffffffffffffffffffffffffffffffffffffffff168373ffffffffffffffffffffffffffffffffffffffff1614610ed4576040517f08c379a0000000000000000000000000000000000000000000000000000000008152600401610ecb90613349565b60405180910390fd5b6000610ee060046111dd565b9050610eec6004611647565b610f1784828486604051602001610f0391906133b1565b60405160208183030381529060405261165d565b50505050565b6000600160008473ffffffffffffffffffffffffffffffffffffffff1673ffffffffffffffffffffffffffffffffffffffff16815260200190815260200160002060008373ffffffffffffffffffffffffffffffffffffffff1673ffffffffffffffffffffffffffffffffffffffff16815260200190815260200160002060009054906101000a900460ff16905092915050565b600063f23a6e6160e01b905095945050505050565b610fce611265565b73ffffffffffffffffffffffffffffffffffffffff168573ffffffffffffffffffffffffffffffffffffffff16148061101457506110138561100e611265565b610f1d565b5b611053576040517f08c379a000000000000000000000000000000000000000000000000000000000815260040161104a9061343e565b60405180910390fd5b61106085858585856117f3565b5050505050565b61106f611265565b73ffffffffffffffffffffffffffffffffffffffff1661108d610c1b565b73ffffffffffffffffffffffffffffffffffffffff16146110e3576040517f08c379a00000000000000000000000000000000000000000000000000000000081526004016110da9061324b565b60405180910390fd5b600073ffffffffffffffffffffffffffffffffffffffff168173ffffffffffffffffffffffffffffffffffffffff161415611153576040517f08c379a000000000000000000000000000000000000000000000000000000000815260040161114a906134d0565b60405180910390fd5b61115c81611581565b50565b3373ffffffffffffffffffffffffffffffffffffffff168373ffffffffffffffffffffffffffffffffffffffff16146111cd576040517f08c379a00000000000000000000000000000000000000000000000000000000081526004016111c49061353c565b60405180910390fd5b6111d8338383611a75565b505050565b600081600001549050919050565b60007f4e2312e0000000000000000000000000000000000000000000000000000000007bffffffffffffffffffffffffffffffffffffffffffffffffffffffff1916827bffffffffffffffffffffffffffffffffffffffffffffffffffffffff1916148061125e575061125d82611c92565b5b9050919050565b600033905090565b81518351146112b1576040517f08c379a00000000000000000000000000000000000000000000000000000000081526004016112a8906135ce565b60405180910390fd5b600073ffffffffffffffffffffffffffffffffffffffff168473ffffffffffffffffffffffffffffffffffffffff161415611321576040517f08c379a000000000000000000000000000000000000000000000000000000000815260040161131890613660565b60405180910390fd5b600061132b611265565b905061133b818787878787611d74565b60005b84518110156114ec57600085828151811061135c5761135b613158565b5b60200260200101519050600085838151811061137b5761137a613158565b5b60200260200101519050600080600084815260200190815260200160002060008b73ffffffffffffffffffffffffffffffffffffffff1673ffffffffffffffffffffffffffffffffffffffff1681526020019081526020016000205490508181101561141c576040517f08c379a0000000000000000000000000000000000000000000000000000000008152600401611413906136f2565b60405180910390fd5b81810360008085815260200190815260200160002060008c73ffffffffffffffffffffffffffffffffffffffff1673ffffffffffffffffffffffffffffffffffffffff168152602001908152602001600020819055508160008085815260200190815260200160002060008b73ffffffffffffffffffffffffffffffffffffffff1673ffffffffffffffffffffffffffffffffffffffff16815260200190815260200160002060008282546114d19190613712565b92505081905550505050806114e5906131b6565b905061133e565b508473ffffffffffffffffffffffffffffffffffffffff168673ffffffffffffffffffffffffffffffffffffffff168273ffffffffffffffffffffffffffffffffffffffff167f4a39dc06d4c0dbc64b70af90fd698a233a518aa5d07e595d983b8c0526c8f7fb8787604051611563929190613768565b60405180910390a4611579818787878787611d7c565b505050505050565b6000600360009054906101000a900473ffffffffffffffffffffffffffffffffffffffff16905081600360006101000a81548173ffffffffffffffffffffffffffffffffffffffff021916908373ffffffffffffffffffffffffffffffffffffffff1602179055508173ffffffffffffffffffffffffffffffffffffffff168173ffffffffffffffffffffffffffffffffffffffff167f8be0079c531659141344cd1fd0a4f28419497f9722a3daafe3b4186f6b6457e060405160405180910390a35050565b6001816000016000828254019250508190555050565b600073ffffffffffffffffffffffffffffffffffffffff168473ffffffffffffffffffffffffffffffffffffffff1614156116cd576040517f08c379a00000000000000000000000000000000000000000000000000000000081526004016116c490613811565b60405180910390fd5b60006116d7611265565b90506116f8816000876116e988611f54565b6116f288611f54565b87611d74565b8260008086815260200190815260200160002060008773ffffffffffffffffffffffffffffffffffffffff1673ffffffffffffffffffffffffffffffffffffffff16815260200190815260200160002060008282546117579190613712565b925050819055508473ffffffffffffffffffffffffffffffffffffffff16600073ffffffffffffffffffffffffffffffffffffffff168273ffffffffffffffffffffffffffffffffffffffff167fc3d58168c5ae7397731d063d5bbf3d657854427343f4c083240f7aacaa2d0f6287876040516117d5929190613831565b60405180910390a46117ec81600087878787611fce565b5050505050565b600073ffffffffffffffffffffffffffffffffffffffff168473ffffffffffffffffffffffffffffffffffffffff161415611863576040517f08c379a000000000000000000000000000000000000000000000000000000000815260040161185a90613660565b60405180910390fd5b600061186d611265565b905061188d81878761187e88611f54565b61188788611f54565b87611d74565b600080600086815260200190815260200160002060008873ffffffffffffffffffffffffffffffffffffffff1673ffffffffffffffffffffffffffffffffffffffff16815260200190815260200160002054905083811015611924576040517f08c379a000000000000000000000000000000000000000000000000000000000815260040161191b906136f2565b60405180910390fd5b83810360008087815260200190815260200160002060008973ffffffffffffffffffffffffffffffffffffffff1673ffffffffffffffffffffffffffffffffffffffff168152602001908152602001600020819055508360008087815260200190815260200160002060008873ffffffffffffffffffffffffffffffffffffffff1673ffffffffffffffffffffffffffffffffffffffff16815260200190815260200160002060008282546119d99190613712565b925050819055508573ffffffffffffffffffffffffffffffffffffffff168773ffffffffffffffffffffffffffffffffffffffff168373ffffffffffffffffffffffffffffffffffffffff167fc3d58168c5ae7397731d063d5bbf3d657854427343f4c083240f7aacaa2d0f628888604051611a56929190613831565b60405180910390a4611a6c828888888888611fce565b50505050505050565b600073ffffffffffffffffffffffffffffffffffffffff168373ffffffffffffffffffffffffffffffffffffffff161415611ae5576040517f08c379a0000000000000000000000000000000000000000000000000000000008152600401611adc906138cc565b60405180910390fd5b6000611aef611265565b9050611b1f81856000611b0187611f54565b611b0a87611f54565b60405180602001604052806000815250611d74565b600080600085815260200190815260200160002060008673ffffffffffffffffffffffffffffffffffffffff1673ffffffffffffffffffffffffffffffffffffffff16815260200190815260200160002054905082811015611bb6576040517f08c379a0000000000000000000000000000000000000000000000000000000008152600401611bad9061395e565b60405180910390fd5b82810360008086815260200190815260200160002060008773ffffffffffffffffffffffffffffffffffffffff1673ffffffffffffffffffffffffffffffffffffffff16815260200190815260200160002081905550600073ffffffffffffffffffffffffffffffffffffffff168573ffffffffffffffffffffffffffffffffffffffff168373ffffffffffffffffffffffffffffffffffffffff167fc3d58168c5ae7397731d063d5bbf3d657854427343f4c083240f7aacaa2d0f628787604051611c83929190613831565b60405180910390a45050505050565b60007fd9b67a26000000000000000000000000000000000000000000000000000000007bffffffffffffffffffffffffffffffffffffffffffffffffffffffff1916827bffffffffffffffffffffffffffffffffffffffffffffffffffffffff19161480611d5d57507f0e89341c000000000000000000000000000000000000000000000000000000007bffffffffffffffffffffffffffffffffffffffffffffffffffffffff1916827bffffffffffffffffffffffffffffffffffffffffffffffffffffffff1916145b80611d6d5750611d6c826121a6565b5b9050919050565b505050505050565b611d9b8473ffffffffffffffffffffffffffffffffffffffff16612210565b15611f4c578373ffffffffffffffffffffffffffffffffffffffff1663bc197c8187878686866040518663ffffffff1660e01b8152600401611de19594939291906139c2565b6020604051808303816000875af1925050508015611e1d57506040513d601f19601f82011682018060405250810190611e1a9190613a3f565b60015b611ec357611e29613a79565b806308c379a01415611e865750611e3e613a9b565b80611e495750611e88565b806040517f08c379a0000000000000000000000000000000000000000000000000000000008152600401611e7d91906124b6565b60405180910390fd5b505b6040517f08c379a0000000000000000000000000000000000000000000000000000000008152600401611eba90613ba3565b60405180910390fd5b63bc197c8160e01b7bffffffffffffffffffffffffffffffffffffffffffffffffffffffff1916817bffffffffffffffffffffffffffffffffffffffffffffffffffffffff191614611f4a576040517f08c379a0000000000000000000000000000000000000000000000000000000008152600401611f4190613c35565b60405180910390fd5b505b505050505050565b60606000600167ffffffffffffffff811115611f7357611f726125a6565b5b604051908082528060200260200182016040528015611fa15781602001602082028036833780820191505090505b5090508281600081518110611fb957611fb8613158565b5b60200260200101818152505080915050919050565b611fed8473ffffffffffffffffffffffffffffffffffffffff16612210565b1561219e578373ffffffffffffffffffffffffffffffffffffffff1663f23a6e6187878686866040518663ffffffff1660e01b8152600401612033959493929190613c55565b6020604051808303816000875af192505050801561206f57506040513d601f19601f8201168201806040525081019061206c9190613a3f565b60015b6121155761207b613a79565b806308c379a014156120d85750612090613a9b565b8061209b57506120da565b806040517f08c379a00000000000000000000000000000000000000000000000000000000081526004016120cf91906124b6565b60405180910390fd5b505b6040517f08c379a000000000000000000000000000000000000000000000000000000000815260040161210c90613ba3565b60405180910390fd5b63f23a6e6160e01b7bffffffffffffffffffffffffffffffffffffffffffffffffffffffff1916817bffffffffffffffffffffffffffffffffffffffffffffffffffffffff19161461219c576040517f08c379a000000000000000000000000000000000000000000000000000000000815260040161219390613c35565b60405180910390fd5b505b505050505050565b60007f01ffc9a7000000000000000000000000000000000000000000000000000000007bffffffffffffffffffffffffffffffffffffffffffffffffffffffff1916827bffffffffffffffffffffffffffffffffffffffffffffffffffffffff1916149050919050565b600080823b905060008111915050919050565b6000819050919050565b61223681612223565b82525050565b6000602082019050612251600083018461222d565b92915050565b6000604051905090565b600080fd5b600080fd5b600073ffffffffffffffffffffffffffffffffffffffff82169050919050565b60006122968261226b565b9050919050565b6122a68161228b565b81146122b157600080fd5b50565b6000813590506122c38161229d565b92915050565b6122d281612223565b81146122dd57600080fd5b50565b6000813590506122ef816122c9565b92915050565b6000806040838503121561230c5761230b612261565b5b600061231a858286016122b4565b925050602061232b858286016122e0565b9150509250929050565b60007fffffffff0000000000000000000000000000000000000000000000000000000082169050919050565b61236a81612335565b811461237557600080fd5b50565b60008135905061238781612361565b92915050565b6000602082840312156123a3576123a2612261565b5b60006123b184828501612378565b91505092915050565b60008115159050919050565b6123cf816123ba565b82525050565b60006020820190506123ea60008301846123c6565b92915050565b60006020828403121561240657612405612261565b5b6000612414848285016122e0565b91505092915050565b600081519050919050565b600082825260208201905092915050565b60005b8381101561245757808201518184015260208101905061243c565b83811115612466576000848401525b50505050565b6000601f19601f8301169050919050565b60006124888261241d565b6124928185612428565b93506124a2818560208601612439565b6124ab8161246c565b840191505092915050565b600060208201905081810360008301526124d0818461247d565b905092915050565b600080600080608085870312156124f2576124f1612261565b5b6000612500878288016122b4565b9450506020612511878288016122b4565b9350506040612522878288016122e0565b9250506060612533878288016122e0565b91505092959194509250565b6125488161228b565b82525050565b600060a082019050612563600083018861253f565b612570602083018761253f565b61257d604083018661222d565b61258a606083018561222d565b61259760808301846123c6565b9695505050505050565b600080fd5b7f4e487b7100000000000000000000000000000000000000000000000000000000600052604160045260246000fd5b6125de8261246c565b810181811067ffffffffffffffff821117156125fd576125fc6125a6565b5b80604052505050565b6000612610612257565b905061261c82826125d5565b919050565b600067ffffffffffffffff82111561263c5761263b6125a6565b5b602082029050602081019050919050565b600080fd5b600061266561266084612621565b612606565b905080838252602082019050602084028301858111156126885761268761264d565b5b835b818110156126b1578061269d88826122e0565b84526020840193505060208101905061268a565b5050509392505050565b600082601f8301126126d0576126cf6125a1565b5b81356126e0848260208601612652565b91505092915050565b600080fd5b600067ffffffffffffffff821115612709576127086125a6565b5b6127128261246c565b9050602081019050919050565b82818337600083830152505050565b600061274161273c846126ee565b612606565b90508281526020810184848401111561275d5761275c6126e9565b5b61276884828561271f565b509392505050565b600082601f830112612785576127846125a1565b5b813561279584826020860161272e565b91505092915050565b600080600080600060a086880312156127ba576127b9612261565b5b60006127c8888289016122b4565b95505060206127d9888289016122b4565b945050604086013567ffffffffffffffff8111156127fa576127f9612266565b5b612806888289016126bb565b935050606086013567ffffffffffffffff81111561282757612826612266565b5b612833888289016126bb565b925050608086013567ffffffffffffffff81111561285457612853612266565b5b61286088828901612770565b9150509295509295909350565b600067ffffffffffffffff821115612888576128876125a6565b5b602082029050602081019050919050565b60006128ac6128a78461286d565b612606565b905080838252602082019050602084028301858111156128cf576128ce61264d565b5b835b818110156128f857806128e488826122b4565b8452602084019350506020810190506128d1565b5050509392505050565b600082601f830112612917576129166125a1565b5b8135612927848260208601612899565b91505092915050565b6000806040838503121561294757612946612261565b5b600083013567ffffffffffffffff81111561296557612964612266565b5b61297185828601612902565b925050602083013567ffffffffffffffff81111561299257612991612266565b5b61299e858286016126bb565b9150509250929050565b600081519050919050565b600082825260208201905092915050565b6000819050602082019050919050565b6129dd81612223565b82525050565b60006129ef83836129d4565b60208301905092915050565b6000602082019050919050565b6000612a13826129a8565b612a1d81856129b3565b9350612a28836129c4565b8060005b83811015612a59578151612a4088826129e3565b9750612a4b836129fb565b925050600181019050612a2c565b5085935050505092915050565b60006020820190508181036000830152612a808184612a08565b905092915050565b6000602082019050612a9d600083018461253f565b92915050565b60058110612ab057600080fd5b50565b600081359050612ac281612aa3565b92915050565b60008060408385031215612adf57612ade612261565b5b6000612aed858286016122b4565b9250506020612afe85828601612ab3565b9150509250929050565b612b11816123ba565b8114612b1c57600080fd5b50565b600081359050612b2e81612b08565b92915050565b60008060408385031215612b4b57612b4a612261565b5b6000612b59858286016122b4565b9250506020612b6a85828601612b1f565b9150509250929050565b600060208284031215612b8a57612b89612261565b5b6000612b98848285016122b4565b91505092915050565b7f4e487b7100000000000000000000000000000000000000000000000000000000600052602160045260246000fd5b60058110612be157612be0612ba1565b5b50565b6000819050612bf282612bd0565b919050565b6000612c0282612be4565b9050919050565b612c1281612bf7565b82525050565b6000602082019050612c2d6000830184612c09565b92915050565b612c3c81612335565b82525050565b6000602082019050612c576000830184612c33565b92915050565b600080600060608486031215612c7657612c75612261565b5b6000612c84868287016122b4565b9350506020612c95868287016122b4565b9250506040612ca6868287016122e0565b9150509250925092565b60008060408385031215612cc757612cc6612261565b5b6000612cd5858286016122b4565b9250506020612ce6858286016122b4565b9150509250929050565b600080600080600060a08688031215612d0c57612d0b612261565b5b6000612d1a888289016122b4565b9550506020612d2b888289016122b4565b9450506040612d3c888289016122e0565b9350506060612d4d888289016122e0565b925050608086013567ffffffffffffffff811115612d6e57612d6d612266565b5b612d7a88828901612770565b9150509295509295909350565b600080600060608486031215612da057612d9f612261565b5b6000612dae868287016122b4565b9350506020612dbf868287016122e0565b9250506040612dd0868287016122e0565b9150509250925092565b7f455243313135353a2062616c616e636520717565727920666f7220746865207a60008201527f65726f2061646472657373000000000000000000000000000000000000000000602082015250565b6000612e36602b83612428565b9150612e4182612dda565b604082019050919050565b60006020820190508181036000830152612e6581612e29565b9050919050565b7f53656e646572206d757374206d6174636820746865206167656e744164647200600082015250565b6000612ea2601f83612428565b9150612ead82612e6c565b602082019050919050565b60006020820190508181036000830152612ed181612e95565b9050919050565b600082825260208201905092915050565b50565b6000612ef9600083612ed8565b9150612f0482612ee9565b600082019050919050565b600060a082019050612f24600083018761253f565b612f31602083018661253f565b612f3e604083018561222d565b612f4b606083018461222d565b8181036080830152612f5c81612eec565b905095945050505050565b7f4e487b7100000000000000000000000000000000000000000000000000000000600052602260045260246000fd5b60006002820490506001821680612fae57607f821691505b60208210811415612fc257612fc1612f67565b5b50919050565b7f53656e646572206d757374206d61746368207468652063736f41646472000000600082015250565b6000612ffe601d83612428565b915061300982612fc8565b602082019050919050565b6000602082019050818103600083015261302d81612ff1565b9050919050565b7f455243313135353a207472616e736665722063616c6c6572206973206e6f742060008201527f6f776e6572206e6f7220617070726f7665640000000000000000000000000000602082015250565b6000613090603283612428565b915061309b82613034565b604082019050919050565b600060208201905081810360008301526130bf81613083565b9050919050565b7f455243313135353a206163636f756e747320616e6420696473206c656e67746860008201527f206d69736d617463680000000000000000000000000000000000000000000000602082015250565b6000613122602983612428565b915061312d826130c6565b604082019050919050565b6000602082019050818103600083015261315181613115565b9050919050565b7f4e487b7100000000000000000000000000000000000000000000000000000000600052603260045260246000fd5b7f4e487b7100000000000000000000000000000000000000000000000000000000600052601160045260246000fd5b60006131c182612223565b91507fffffffffffffffffffffffffffffffffffffffffffffffffffffffffffffffff8214156131f4576131f3613187565b5b600182019050919050565b7f4f776e61626c653a2063616c6c6572206973206e6f7420746865206f776e6572600082015250565b6000613235602083612428565b9150613240826131ff565b602082019050919050565b6000602082019050818103600083015261326481613228565b9050919050565b7f455243313135353a2073657474696e6720617070726f76616c2073746174757360008201527f20666f722073656c660000000000000000000000000000000000000000000000602082015250565b60006132c7602983612428565b91506132d28261326b565b604082019050919050565b600060208201905081810360008301526132f6816132ba565b9050919050565b7f53656e646572206d757374206d617463682074686520646f6e6f724164647200600082015250565b6000613333601f83612428565b915061333e826132fd565b602082019050919050565b6000602082019050818103600083015261336281613326565b9050919050565b60008160601b9050919050565b600061338182613369565b9050919050565b600061339382613376565b9050919050565b6133ab6133a68261228b565b613388565b82525050565b60006133bd828461339a565b60148201915081905092915050565b7f455243313135353a2063616c6c6572206973206e6f74206f776e6572206e6f7260008201527f20617070726f7665640000000000000000000000000000000000000000000000602082015250565b6000613428602983612428565b9150613433826133cc565b604082019050919050565b600060208201905081810360008301526134578161341b565b9050919050565b7f4f776e61626c653a206e6577206f776e657220697320746865207a65726f206160008201527f6464726573730000000000000000000000000000000000000000000000000000602082015250565b60006134ba602683612428565b91506134c58261345e565b604082019050919050565b600060208201905081810360008301526134e9816134ad565b9050919050565b7f53656e646572206d757374206d617463682074686520636c69656e7441646472600082015250565b6000613526602083612428565b9150613531826134f0565b602082019050919050565b6000602082019050818103600083015261355581613519565b9050919050565b7f455243313135353a2069647320616e6420616d6f756e7473206c656e6774682060008201527f6d69736d61746368000000000000000000000000000000000000000000000000602082015250565b60006135b8602883612428565b91506135c38261355c565b604082019050919050565b600060208201905081810360008301526135e7816135ab565b9050919050565b7f455243313135353a207472616e7366657220746f20746865207a65726f20616460008201527f6472657373000000000000000000000000000000000000000000000000000000602082015250565b600061364a602583612428565b9150613655826135ee565b604082019050919050565b600060208201905081810360008301526136798161363d565b9050919050565b7f455243313135353a20696e73756666696369656e742062616c616e636520666f60008201527f72207472616e7366657200000000000000000000000000000000000000000000602082015250565b60006136dc602a83612428565b91506136e782613680565b604082019050919050565b6000602082019050818103600083015261370b816136cf565b9050919050565b600061371d82612223565b915061372883612223565b9250827fffffffffffffffffffffffffffffffffffffffffffffffffffffffffffffffff0382111561375d5761375c613187565b5b828201905092915050565b600060408201905081810360008301526137828185612a08565b905081810360208301526137968184612a08565b90509392505050565b7f455243313135353a206d696e7420746f20746865207a65726f2061646472657360008201527f7300000000000000000000000000000000000000000000000000000000000000602082015250565b60006137fb602183612428565b91506138068261379f565b604082019050919050565b6000602082019050818103600083015261382a816137ee565b9050919050565b6000604082019050613846600083018561222d565b613853602083018461222d565b9392505050565b7f455243313135353a206275726e2066726f6d20746865207a65726f206164647260008201527f6573730000000000000000000000000000000000000000000000000000000000602082015250565b60006138b6602383612428565b91506138c18261385a565b604082019050919050565b600060208201905081810360008301526138e5816138a9565b9050919050565b7f455243313135353a206275726e20616d6f756e7420657863656564732062616c60008201527f616e636500000000000000000000000000000000000000000000000000000000602082015250565b6000613948602483612428565b9150613953826138ec565b604082019050919050565b600060208201905081810360008301526139778161393b565b9050919050565b600081519050919050565b60006139948261397e565b61399e8185612ed8565b93506139ae818560208601612439565b6139b78161246c565b840191505092915050565b600060a0820190506139d7600083018861253f565b6139e4602083018761253f565b81810360408301526139f68186612a08565b90508181036060830152613a0a8185612a08565b90508181036080830152613a1e8184613989565b90509695505050505050565b600081519050613a3981612361565b92915050565b600060208284031215613a5557613a54612261565b5b6000613a6384828501613a2a565b91505092915050565b60008160e01c9050919050565b600060033d1115613a985760046000803e613a95600051613a6c565b90505b90565b600060443d1015613aab57613b2e565b613ab3612257565b60043d036004823e80513d602482011167ffffffffffffffff82111715613adb575050613b2e565b808201805167ffffffffffffffff811115613af95750505050613b2e565b80602083010160043d038501811115613b16575050505050613b2e565b613b25826020018501866125d5565b82955050505050505b90565b7f455243313135353a207472616e7366657220746f206e6f6e204552433131353560008201527f526563656976657220696d706c656d656e746572000000000000000000000000602082015250565b6000613b8d603483612428565b9150613b9882613b31565b604082019050919050565b60006020820190508181036000830152613bbc81613b80565b9050919050565b7f455243313135353a204552433131353552656365697665722072656a6563746560008201527f6420746f6b656e73000000000000000000000000000000000000000000000000602082015250565b6000613c1f602883612428565b9150613c2a82613bc3565b604082019050919050565b60006020820190508181036000830152613c4e81613c12565b9050919050565b600060a082019050613c6a600083018861253f565b613c77602083018761253f565b613c84604083018661222d565b613c91606083018561222d565b8181036080830152613ca38184613989565b9050969550505050505056fea26469706673582212201ada1af8b2b443dbe36f0d2b817d10d267f0f80e81d287c08f14aea25b4afe2464736f6c634300080a0033",
  "immutableReferences": {},
  "source": "// SPDX-License-Identifier: Apache-2.0\npragma solidity >=0.7.0 <0.9.0;\n\nimport \"@openzeppelin/contracts/token/ERC1155/ERC1155.sol\";\nimport \"@openzeppelin/contracts/token/ERC1155/utils/ERC1155Receiver.sol\";\nimport \"@openzeppelin/contracts/token/ERC1155/utils/ERC1155Holder.sol\";\nimport \"@openzeppelin/contracts/token/ERC20/ERC20.sol\";\nimport \"@openzeppelin/contracts/access/Ownable.sol\";\nimport \"@openzeppelin/contracts/utils/Counters.sol\";\nimport \"@openzeppelin/contracts/utils/Strings.sol\";\n\n/**\n * Defines 4 roles Donor, Client, CSO, and Agent for sending around value.\n * The Donor mints tokens by sending a wire transfer to the Client who holds the underlying money.\n * The Donor can then give those tokens to the CSO to pay for things in the conflict zone.\n * The CSOs can cash out their tokens with Agents in the conflict zone.\n * Agents cash out thier tokens with the Client outside the conflict zone, at which point the Client can burn the tokens.\n * TODO for all the functions that require some external flow (eg wire transfer, cash exchange) we should add some type of confirmation\n * TODO investigate OpenZepplin AccessControl - at first glance it didn't match our needs but should investigate again\n */\ncontract HawalaCoin is ERC1155, ERC1155Receiver, ERC1155Holder, Ownable  {\n    using Counters for Counters.Counter;\n    \n    Counters.Counter _tokenCounter;\n    \n    mapping(address => Role) public users;\n    enum Role {NONE, DONOR, CLIENT, CSO, AGENT}\n\n    Counters.Counter _missionCounter;\n    struct Mission {\n        address csoAddr;\n        address agentAddr;\n        uint256 tokenId;\n        uint256 amount;\n        bool completed;\n    }\n    mapping(uint256 => Mission) public missions;\n    \n    // TODO add events\n    \n    /**\n     * Called by the contract owner\n     */\n    constructor() ERC1155(\"\") {}\n    \n    /**\n     * Bubble supportsInterface down the class hierarchy\n     */\n    function supportsInterface(bytes4 interfaceId) public view virtual override(ERC1155, ERC1155Receiver) returns (bool) {\n        return super.supportsInterface(interfaceId);\n    }\n    \n    /**\n     * TODO add rules:\n     * 1) DONOR can only be added by contract owner\n     * 2) CLIENT can only be added by DONOR\n     * 3) CSO can only be added by DONOR\n     * 4) AGENT can only be added by CLIENT\n     * TODO add check if user already exists - error or update?\n     */\n    function addUser(address addr, Role role) public {\n        users[addr] = role;\n    }\n    \n    /**\n     * Mints an amount of new tokens for the Donor which are redeamable at the Client\n     * TODO add rule: only Donor can call\n     * TODO add currency field, right now we assume amount in USD in pennies\n     * TODO add some type of verification/confirmation to ensure minted tokens truly reflect new bank balance\n     */\n    function mint(address donorAddr, address clientAddr, uint256 amount) public {\n        require(donorAddr == msg.sender, \"Sender must match the donorAddr\");\n        uint256 tokenId = _tokenCounter.current();\n        _tokenCounter.increment();\n        _mint(donorAddr, tokenId, amount, abi.encodePacked(clientAddr));\n    }\n    \n    /**\n     * TODO add rule: only Client can call\n     */\n    function burn(address clientAddr, uint256 tokenId, uint256 amount) public {\n        require(clientAddr == msg.sender, \"Sender must match the clientAddr\");\n        _burn(msg.sender, tokenId, amount);\n    }\n    \n    /**\n     * TODO add rule: only CSO can call\n     * Creates mission for a specific agent and transfers tokens to contract for escrow\n     */\n    function createMission(address csoAddr, address agentAddr, uint256 tokenId, uint256 amount) public {\n        require(csoAddr == msg.sender, \"Sender must match the csoAddr\");\n        uint256 missionId = _missionCounter.current();\n        missions[missionId] = Mission({\n           csoAddr: csoAddr,\n           agentAddr: agentAddr,\n           tokenId: tokenId,\n           amount: amount,\n           completed: false\n        });\n        this.safeTransferFrom(csoAddr, address(this), tokenId, amount, \"\");\n    }\n    \n    /**\n     * TODO add rule: only Agent can call\n     * TODO add functionality to allow for partial mission completions which would return some amount back to CSO\n     */\n    function completeMission(address agentAddr, uint256 missionId) public {\n        require(agentAddr == msg.sender, \"Sender must match the agentAddr\");\n        uint256 tokenId = missions[missionId].tokenId;\n        uint256 amount = missions[missionId].amount;\n        missions[missionId].completed = true;\n        this.safeTransferFrom(address(this), agentAddr, tokenId, amount, \"\");\n    }\n\n    /**\n     * Convinience function to get the current token id so we can loop through all previous tokens\n     */\n    function currentTokenId() public view returns (uint256) {\n        return _tokenCounter.current();\n    }\n\n    /**\n     * Convinience function to get the current missions id so we can loop through all previous missions\n     */\n    function currentMissionId() public view returns (uint256) {\n        return _missionCounter.current();\n    }\n}\n",
  "sourcePath": "/Users/jsaur/projects/tmp/hawalacoin/truffle/contracts/HawalaCoin.sol",
  "compiler": {
    "name": "solc",
    "version": "0.8.10+commit.fc410830.Emscripten.clang"
  },
  "schemaVersion": "3.4.3",
  "updatedAt": "2021-11-24T17:07:29.060Z",
  "devdoc": {
    "kind": "dev",
    "methods": {
      "balanceOf(address,uint256)": {
        "details": "See {IERC1155-balanceOf}. Requirements: - `account` cannot be the zero address."
      },
      "balanceOfBatch(address[],uint256[])": {
        "details": "See {IERC1155-balanceOfBatch}. Requirements: - `accounts` and `ids` must have the same length."
      },
      "isApprovedForAll(address,address)": {
        "details": "See {IERC1155-isApprovedForAll}."
      },
      "owner()": {
        "details": "Returns the address of the current owner."
      },
      "renounceOwnership()": {
        "details": "Leaves the contract without owner. It will not be possible to call `onlyOwner` functions anymore. Can only be called by the current owner. NOTE: Renouncing ownership will leave the contract without an owner, thereby removing any functionality that is only available to the owner."
      },
      "safeBatchTransferFrom(address,address,uint256[],uint256[],bytes)": {
        "details": "See {IERC1155-safeBatchTransferFrom}."
      },
      "safeTransferFrom(address,address,uint256,uint256,bytes)": {
        "details": "See {IERC1155-safeTransferFrom}."
      },
      "setApprovalForAll(address,bool)": {
        "details": "See {IERC1155-setApprovalForAll}."
      },
      "transferOwnership(address)": {
        "details": "Transfers ownership of the contract to a new account (`newOwner`). Can only be called by the current owner."
      },
      "uri(uint256)": {
        "details": "See {IERC1155MetadataURI-uri}. This implementation returns the same URI for *all* token types. It relies on the token type ID substitution mechanism https://eips.ethereum.org/EIPS/eip-1155#metadata[defined in the EIP]. Clients calling this function must replace the `\\{id\\}` substring with the actual token type ID."
      }
    },
    "version": 1
  },
  "userdoc": {
    "kind": "user",
    "methods": {
      "addUser(address,uint8)": {
        "notice": "TODO add rules: 1) DONOR can only be added by contract owner 2) CLIENT can only be added by DONOR 3) CSO can only be added by DONOR 4) AGENT can only be added by CLIENT TODO add check if user already exists - error or update?"
      },
      "burn(address,uint256,uint256)": {
        "notice": "TODO add rule: only Client can call"
      },
      "completeMission(address,uint256)": {
        "notice": "TODO add rule: only Agent can call TODO add functionality to allow for partial mission completions which would return some amount back to CSO"
      },
      "constructor": {
        "notice": "Called by the contract owner"
      },
      "createMission(address,address,uint256,uint256)": {
        "notice": "TODO add rule: only CSO can call Creates mission for a specific agent and transfers tokens to contract for escrow"
      },
      "currentMissionId()": {
        "notice": "Convinience function to get the current missions id so we can loop through all previous missions"
      },
      "currentTokenId()": {
        "notice": "Convinience function to get the current token id so we can loop through all previous tokens"
      },
      "mint(address,address,uint256)": {
        "notice": "Mints an amount of new tokens for the Donor which are redeamable at the Client TODO add rule: only Donor can call TODO add currency field, right now we assume amount in USD in pennies TODO add some type of verification/confirmation to ensure minted tokens truly reflect new bank balance"
      },
      "supportsInterface(bytes4)": {
        "notice": "Bubble supportsInterface down the class hierarchy"
      }
    },
    "notice": "Defines 4 roles Donor, Client, CSO, and Agent for sending around value. The Donor mints tokens by sending a wire transfer to the Client who holds the underlying money. The Donor can then give those tokens to the CSO to pay for things in the conflict zone. The CSOs can cash out their tokens with Agents in the conflict zone. Agents cash out thier tokens with the Client outside the conflict zone, at which point the Client can burn the tokens. TODO for all the functions that require some external flow (eg wire transfer, cash exchange) we should add some type of confirmation TODO investigate OpenZepplin AccessControl - at first glance it didn't match our needs but should investigate again",
    "version": 1
  }
}