{
  "contractName": "HawalaCoin",
  "abi": [
    {
      "inputs": [],
      "stateMutability": "nonpayable",
      "type": "constructor"
    },
    {
      "anonymous": false,
      "inputs": [
        {
          "indexed": true,
          "internalType": "address",
          "name": "account",
          "type": "address"
        },
        {
          "indexed": true,
          "internalType": "address",
          "name": "operator",
          "type": "address"
        },
        {
          "indexed": false,
          "internalType": "bool",
          "name": "approved",
          "type": "bool"
        }
      ],
      "name": "ApprovalForAll",
      "type": "event"
    },
    {
      "anonymous": false,
      "inputs": [
        {
          "indexed": true,
          "internalType": "address",
          "name": "previousOwner",
          "type": "address"
        },
        {
          "indexed": true,
          "internalType": "address",
          "name": "newOwner",
          "type": "address"
        }
      ],
      "name": "OwnershipTransferred",
      "type": "event"
    },
    {
      "anonymous": false,
      "inputs": [
        {
          "indexed": true,
          "internalType": "address",
          "name": "operator",
          "type": "address"
        },
        {
          "indexed": true,
          "internalType": "address",
          "name": "from",
          "type": "address"
        },
        {
          "indexed": true,
          "internalType": "address",
          "name": "to",
          "type": "address"
        },
        {
          "indexed": false,
          "internalType": "uint256[]",
          "name": "ids",
          "type": "uint256[]"
        },
        {
          "indexed": false,
          "internalType": "uint256[]",
          "name": "values",
          "type": "uint256[]"
        }
      ],
      "name": "TransferBatch",
      "type": "event"
    },
    {
      "anonymous": false,
      "inputs": [
        {
          "indexed": true,
          "internalType": "address",
          "name": "operator",
          "type": "address"
        },
        {
          "indexed": true,
          "internalType": "address",
          "name": "from",
          "type": "address"
        },
        {
          "indexed": true,
          "internalType": "address",
          "name": "to",
          "type": "address"
        },
        {
          "indexed": false,
          "internalType": "uint256",
          "name": "id",
          "type": "uint256"
        },
        {
          "indexed": false,
          "internalType": "uint256",
          "name": "value",
          "type": "uint256"
        }
      ],
      "name": "TransferSingle",
      "type": "event"
    },
    {
      "anonymous": false,
      "inputs": [
        {
          "indexed": false,
          "internalType": "string",
          "name": "value",
          "type": "string"
        },
        {
          "indexed": true,
          "internalType": "uint256",
          "name": "id",
          "type": "uint256"
        }
      ],
      "name": "URI",
      "type": "event"
    },
    {
      "inputs": [
        {
          "internalType": "address",
          "name": "account",
          "type": "address"
        },
        {
          "internalType": "uint256",
          "name": "id",
          "type": "uint256"
        }
      ],
      "name": "balanceOf",
      "outputs": [
        {
          "internalType": "uint256",
          "name": "",
          "type": "uint256"
        }
      ],
      "stateMutability": "view",
      "type": "function"
    },
    {
      "inputs": [
        {
          "internalType": "address[]",
          "name": "accounts",
          "type": "address[]"
        },
        {
          "internalType": "uint256[]",
          "name": "ids",
          "type": "uint256[]"
        }
      ],
      "name": "balanceOfBatch",
      "outputs": [
        {
          "internalType": "uint256[]",
          "name": "",
          "type": "uint256[]"
        }
      ],
      "stateMutability": "view",
      "type": "function"
    },
    {
      "inputs": [
        {
          "internalType": "address",
          "name": "account",
          "type": "address"
        },
        {
          "internalType": "address",
          "name": "operator",
          "type": "address"
        }
      ],
      "name": "isApprovedForAll",
      "outputs": [
        {
          "internalType": "bool",
          "name": "",
          "type": "bool"
        }
      ],
      "stateMutability": "view",
      "type": "function"
    },
    {
      "inputs": [
        {
          "internalType": "uint256",
          "name": "",
          "type": "uint256"
        }
      ],
      "name": "missions",
      "outputs": [
        {
          "internalType": "address",
          "name": "csoAddr",
          "type": "address"
        },
        {
          "internalType": "address",
          "name": "agentAddr",
          "type": "address"
        },
        {
          "internalType": "uint256",
          "name": "tokenId",
          "type": "uint256"
        },
        {
          "internalType": "uint256",
          "name": "amount",
          "type": "uint256"
        },
        {
          "internalType": "bool",
          "name": "completed",
          "type": "bool"
        }
      ],
      "stateMutability": "view",
      "type": "function"
    },
    {
      "inputs": [
        {
          "internalType": "address",
          "name": "",
          "type": "address"
        },
        {
          "internalType": "address",
          "name": "",
          "type": "address"
        },
        {
          "internalType": "uint256[]",
          "name": "",
          "type": "uint256[]"
        },
        {
          "internalType": "uint256[]",
          "name": "",
          "type": "uint256[]"
        },
        {
          "internalType": "bytes",
          "name": "",
          "type": "bytes"
        }
      ],
      "name": "onERC1155BatchReceived",
      "outputs": [
        {
          "internalType": "bytes4",
          "name": "",
          "type": "bytes4"
        }
      ],
      "stateMutability": "nonpayable",
      "type": "function"
    },
    {
      "inputs": [
        {
          "internalType": "address",
          "name": "",
          "type": "address"
        },
        {
          "internalType": "address",
          "name": "",
          "type": "address"
        },
        {
          "internalType": "uint256",
          "name": "",
          "type": "uint256"
        },
        {
          "internalType": "uint256",
          "name": "",
          "type": "uint256"
        },
        {
          "internalType": "bytes",
          "name": "",
          "type": "bytes"
        }
      ],
      "name": "onERC1155Received",
      "outputs": [
        {
          "internalType": "bytes4",
          "name": "",
          "type": "bytes4"
        }
      ],
      "stateMutability": "nonpayable",
      "type": "function"
    },
    {
      "inputs": [],
      "name": "owner",
      "outputs": [
        {
          "internalType": "address",
          "name": "",
          "type": "address"
        }
      ],
      "stateMutability": "view",
      "type": "function"
    },
    {
      "inputs": [],
      "name": "renounceOwnership",
      "outputs": [],
      "stateMutability": "nonpayable",
      "type": "function"
    },
    {
      "inputs": [
        {
          "internalType": "address",
          "name": "from",
          "type": "address"
        },
        {
          "internalType": "address",
          "name": "to",
          "type": "address"
        },
        {
          "internalType": "uint256[]",
          "name": "ids",
          "type": "uint256[]"
        },
        {
          "internalType": "uint256[]",
          "name": "amounts",
          "type": "uint256[]"
        },
        {
          "internalType": "bytes",
          "name": "data",
          "type": "bytes"
        }
      ],
      "name": "safeBatchTransferFrom",
      "outputs": [],
      "stateMutability": "nonpayable",
      "type": "function"
    },
    {
      "inputs": [
        {
          "internalType": "address",
          "name": "from",
          "type": "address"
        },
        {
          "internalType": "address",
          "name": "to",
          "type": "address"
        },
        {
          "internalType": "uint256",
          "name": "id",
          "type": "uint256"
        },
        {
          "internalType": "uint256",
          "name": "amount",
          "type": "uint256"
        },
        {
          "internalType": "bytes",
          "name": "data",
          "type": "bytes"
        }
      ],
      "name": "safeTransferFrom",
      "outputs": [],
      "stateMutability": "nonpayable",
      "type": "function"
    },
    {
      "inputs": [
        {
          "internalType": "address",
          "name": "operator",
          "type": "address"
        },
        {
          "internalType": "bool",
          "name": "approved",
          "type": "bool"
        }
      ],
      "name": "setApprovalForAll",
      "outputs": [],
      "stateMutability": "nonpayable",
      "type": "function"
    },
    {
      "inputs": [
        {
          "internalType": "address",
          "name": "newOwner",
          "type": "address"
        }
      ],
      "name": "transferOwnership",
      "outputs": [],
      "stateMutability": "nonpayable",
      "type": "function"
    },
    {
      "inputs": [
        {
          "internalType": "uint256",
          "name": "",
          "type": "uint256"
        }
      ],
      "name": "uri",
      "outputs": [
        {
          "internalType": "string",
          "name": "",
          "type": "string"
        }
      ],
      "stateMutability": "view",
      "type": "function"
    },
    {
      "inputs": [
        {
          "internalType": "address",
          "name": "",
          "type": "address"
        }
      ],
      "name": "users",
      "outputs": [
        {
          "internalType": "enum HawalaCoin.Role",
          "name": "",
          "type": "uint8"
        }
      ],
      "stateMutability": "view",
      "type": "function"
    },
    {
      "inputs": [
        {
          "internalType": "bytes4",
          "name": "interfaceId",
          "type": "bytes4"
        }
      ],
      "name": "supportsInterface",
      "outputs": [
        {
          "internalType": "bool",
          "name": "",
          "type": "bool"
        }
      ],
      "stateMutability": "view",
      "type": "function"
    },
    {
      "inputs": [
        {
          "internalType": "address",
          "name": "addr",
          "type": "address"
        },
        {
          "internalType": "enum HawalaCoin.Role",
          "name": "role",
          "type": "uint8"
        }
      ],
      "name": "addUser",
      "outputs": [],
      "stateMutability": "nonpayable",
      "type": "function"
    },
    {
      "inputs": [
        {
          "internalType": "address",
          "name": "donorAddr",
          "type": "address"
        },
        {
          "internalType": "address",
          "name": "clientAddr",
          "type": "address"
        },
        {
          "internalType": "uint256",
          "name": "amount",
          "type": "uint256"
        }
      ],
      "name": "mint",
      "outputs": [],
      "stateMutability": "nonpayable",
      "type": "function"
    },
    {
      "inputs": [
        {
          "internalType": "address",
          "name": "clientAddr",
          "type": "address"
        },
        {
          "internalType": "uint256",
          "name": "tokenId",
          "type": "uint256"
        },
        {
          "internalType": "uint256",
          "name": "amount",
          "type": "uint256"
        }
      ],
      "name": "burn",
      "outputs": [],
      "stateMutability": "nonpayable",
      "type": "function"
    },
    {
      "inputs": [
        {
          "internalType": "address",
          "name": "csoAddr",
          "type": "address"
        },
        {
          "internalType": "address",
          "name": "agentAddr",
          "type": "address"
        },
        {
          "internalType": "uint256",
          "name": "tokenId",
          "type": "uint256"
        },
        {
          "internalType": "uint256",
          "name": "amount",
          "type": "uint256"
        }
      ],
      "name": "createMission",
      "outputs": [],
      "stateMutability": "nonpayable",
      "type": "function"
    },
    {
      "inputs": [
        {
          "internalType": "address",
          "name": "agentAddr",
          "type": "address"
        },
        {
          "internalType": "uint256",
          "name": "missionId",
          "type": "uint256"
        }
      ],
      "name": "completeMission",
      "outputs": [],
      "stateMutability": "nonpayable",
      "type": "function"
    }
  ],
  "bytecode": "0x60806040523480156200001157600080fd5b506040518060200160405280600081525062000033816200005a60201b60201c565b5062000054620000486200007660201b60201c565b6200007e60201b60201c565b62000259565b80600290805190602001906200007292919062000144565b5050565b600033905090565b6000600360009054906101000a900473ffffffffffffffffffffffffffffffffffffffff16905081600360006101000a81548173ffffffffffffffffffffffffffffffffffffffff021916908373ffffffffffffffffffffffffffffffffffffffff1602179055508173ffffffffffffffffffffffffffffffffffffffff168173ffffffffffffffffffffffffffffffffffffffff167f8be0079c531659141344cd1fd0a4f28419497f9722a3daafe3b4186f6b6457e060405160405180910390a35050565b828054620001529062000223565b90600052602060002090601f016020900481019282620001765760008555620001c2565b82601f106200019157805160ff1916838001178555620001c2565b82800160010185558215620001c2579182015b82811115620001c1578251825591602001919060010190620001a4565b5b509050620001d19190620001d5565b5090565b5b80821115620001f0576000816000905550600101620001d6565b5090565b7f4e487b7100000000000000000000000000000000000000000000000000000000600052602260045260246000fd5b600060028204905060018216806200023c57607f821691505b60208210811415620002535762000252620001f4565b5b50919050565b613c7280620002696000396000f3fe608060405234801561001057600080fd5b506004361061012b5760003560e01c80639c3eead9116100ad578063e985e9c511610071578063e985e9c514610354578063f23a6e6114610384578063f242432a146103b4578063f2fde38b146103d0578063f5298aca146103ec5761012b565b80639c3eead9146102a0578063a22cb465146102bc578063a87430ba146102d8578063bc197c8114610308578063c6c3bbe6146103385761012b565b80632c8fe526116100f45780632c8fe526146101f85780632eb2c2d61461022c5780634e1273f414610248578063715018a6146102785780638da5cb5b146102825761012b565b8062fdd58e1461013057806301ffc9a71461016057806305158f46146101905780630e89341c146101ac5780631d7194b7146101dc575b600080fd5b61014a60048036038101906101459190612258565b610408565b60405161015791906122a7565b60405180910390f35b61017a6004803603810190610175919061231a565b6104d1565b6040516101879190612362565b60405180910390f35b6101aa60048036038101906101a59190612258565b6104e3565b005b6101c660048036038101906101c1919061237d565b61062d565b6040516101d39190612443565b60405180910390f35b6101f660048036038101906101f19190612465565b6106c1565b005b610212600480360381019061020d919061237d565b6108e3565b6040516102239594939291906124db565b60405180910390f35b6102466004803603810190610241919061272b565b610966565b005b610262600480360381019061025d91906128bd565b610a07565b60405161026f91906129f3565b60405180910390f35b610280610b20565b005b61028a610ba8565b6040516102979190612a15565b60405180910390f35b6102ba60048036038101906102b59190612a55565b610bd2565b005b6102d660048036038101906102d19190612ac1565b610c3d565b005b6102f260048036038101906102ed9190612b01565b610dbe565b6040516102ff9190612ba5565b60405180910390f35b610322600480360381019061031d919061272b565b610dde565b60405161032f9190612bcf565b60405180910390f35b610352600480360381019061034d9190612bea565b610df3565b005b61036e60048036038101906103699190612c3d565b610eaa565b60405161037b9190612362565b60405180910390f35b61039e60048036038101906103999190612c7d565b610f3e565b6040516103ab9190612bcf565b60405180910390f35b6103ce60048036038101906103c99190612c7d565b610f53565b005b6103ea60048036038101906103e59190612b01565b610ff4565b005b61040660048036038101906104019190612d14565b6110ec565b005b60008073ffffffffffffffffffffffffffffffffffffffff168373ffffffffffffffffffffffffffffffffffffffff161415610479576040517f08c379a000000000000000000000000000000000000000000000000000000000815260040161047090612dd9565b60405180910390fd5b60008083815260200190815260200160002060008473ffffffffffffffffffffffffffffffffffffffff1673ffffffffffffffffffffffffffffffffffffffff16815260200190815260200160002054905092915050565b60006104dc8261116a565b9050919050565b3373ffffffffffffffffffffffffffffffffffffffff168273ffffffffffffffffffffffffffffffffffffffff1614610551576040517f08c379a000000000000000000000000000000000000000000000000000000000815260040161054890612e45565b60405180910390fd5b60006007600083815260200190815260200160002060020154905060006007600084815260200190815260200160002060030154905060016007600085815260200190815260200160002060040160006101000a81548160ff0219169083151502179055503073ffffffffffffffffffffffffffffffffffffffff1663f242432a308685856040518563ffffffff1660e01b81526004016105f59493929190612e9c565b600060405180830381600087803b15801561060f57600080fd5b505af1158015610623573d6000803e3d6000fd5b5050505050505050565b60606002805461063c90612f23565b80601f016020809104026020016040519081016040528092919081815260200182805461066890612f23565b80156106b55780601f1061068a576101008083540402835291602001916106b5565b820191906000526020600020905b81548152906001019060200180831161069857829003601f168201915b50505050509050919050565b3373ffffffffffffffffffffffffffffffffffffffff168473ffffffffffffffffffffffffffffffffffffffff161461072f576040517f08c379a000000000000000000000000000000000000000000000000000000000815260040161072690612fa1565b60405180910390fd5b600061073b60066111e4565b90506040518060a001604052808673ffffffffffffffffffffffffffffffffffffffff1681526020018573ffffffffffffffffffffffffffffffffffffffff168152602001848152602001838152602001600015158152506007600083815260200190815260200160002060008201518160000160006101000a81548173ffffffffffffffffffffffffffffffffffffffff021916908373ffffffffffffffffffffffffffffffffffffffff16021790555060208201518160010160006101000a81548173ffffffffffffffffffffffffffffffffffffffff021916908373ffffffffffffffffffffffffffffffffffffffff160217905550604082015181600201556060820151816003015560808201518160040160006101000a81548160ff0219169083151502179055509050503073ffffffffffffffffffffffffffffffffffffffff1663f242432a863086866040518563ffffffff1660e01b81526004016108aa9493929190612e9c565b600060405180830381600087803b1580156108c457600080fd5b505af11580156108d8573d6000803e3d6000fd5b505050505050505050565b60076020528060005260406000206000915090508060000160009054906101000a900473ffffffffffffffffffffffffffffffffffffffff16908060010160009054906101000a900473ffffffffffffffffffffffffffffffffffffffff16908060020154908060030154908060040160009054906101000a900460ff16905085565b61096e6111f2565b73ffffffffffffffffffffffffffffffffffffffff168573ffffffffffffffffffffffffffffffffffffffff1614806109b457506109b3856109ae6111f2565b610eaa565b5b6109f3576040517f08c379a00000000000000000000000000000000000000000000000000000000081526004016109ea90613033565b60405180910390fd5b610a0085858585856111fa565b5050505050565b60608151835114610a4d576040517f08c379a0000000000000000000000000000000000000000000000000000000008152600401610a44906130c5565b60405180910390fd5b6000835167ffffffffffffffff811115610a6a57610a69612533565b5b604051908082528060200260200182016040528015610a985781602001602082028036833780820191505090505b50905060005b8451811015610b1557610ae5858281518110610abd57610abc6130e5565b5b6020026020010151858381518110610ad857610ad76130e5565b5b6020026020010151610408565b828281518110610af857610af76130e5565b5b60200260200101818152505080610b0e90613143565b9050610a9e565b508091505092915050565b610b286111f2565b73ffffffffffffffffffffffffffffffffffffffff16610b46610ba8565b73ffffffffffffffffffffffffffffffffffffffff1614610b9c576040517f08c379a0000000000000000000000000000000000000000000000000000000008152600401610b93906131d8565b60405180910390fd5b610ba6600061150e565b565b6000600360009054906101000a900473ffffffffffffffffffffffffffffffffffffffff16905090565b80600560008473ffffffffffffffffffffffffffffffffffffffff1673ffffffffffffffffffffffffffffffffffffffff16815260200190815260200160002060006101000a81548160ff02191690836004811115610c3457610c33612b2e565b5b02179055505050565b8173ffffffffffffffffffffffffffffffffffffffff16610c5c6111f2565b73ffffffffffffffffffffffffffffffffffffffff161415610cb3576040517f08c379a0000000000000000000000000000000000000000000000000000000008152600401610caa9061326a565b60405180910390fd5b8060016000610cc06111f2565b73ffffffffffffffffffffffffffffffffffffffff1673ffffffffffffffffffffffffffffffffffffffff16815260200190815260200160002060008473ffffffffffffffffffffffffffffffffffffffff1673ffffffffffffffffffffffffffffffffffffffff16815260200190815260200160002060006101000a81548160ff0219169083151502179055508173ffffffffffffffffffffffffffffffffffffffff16610d6d6111f2565b73ffffffffffffffffffffffffffffffffffffffff167f17307eab39ab6107e8899845ad3d59bd9653f200f220920489ca2b5937696c3183604051610db29190612362565b60405180910390a35050565b60056020528060005260406000206000915054906101000a900460ff1681565b600063bc197c8160e01b905095945050505050565b3373ffffffffffffffffffffffffffffffffffffffff168373ffffffffffffffffffffffffffffffffffffffff1614610e61576040517f08c379a0000000000000000000000000000000000000000000000000000000008152600401610e58906132d6565b60405180910390fd5b6000610e6d60046111e4565b9050610e7960046115d4565b610ea484828486604051602001610e90919061333e565b6040516020818303038152906040526115ea565b50505050565b6000600160008473ffffffffffffffffffffffffffffffffffffffff1673ffffffffffffffffffffffffffffffffffffffff16815260200190815260200160002060008373ffffffffffffffffffffffffffffffffffffffff1673ffffffffffffffffffffffffffffffffffffffff16815260200190815260200160002060009054906101000a900460ff16905092915050565b600063f23a6e6160e01b905095945050505050565b610f5b6111f2565b73ffffffffffffffffffffffffffffffffffffffff168573ffffffffffffffffffffffffffffffffffffffff161480610fa15750610fa085610f9b6111f2565b610eaa565b5b610fe0576040517f08c379a0000000000000000000000000000000000000000000000000000000008152600401610fd7906133cb565b60405180910390fd5b610fed8585858585611780565b5050505050565b610ffc6111f2565b73ffffffffffffffffffffffffffffffffffffffff1661101a610ba8565b73ffffffffffffffffffffffffffffffffffffffff1614611070576040517f08c379a0000000000000000000000000000000000000000000000000000000008152600401611067906131d8565b60405180910390fd5b600073ffffffffffffffffffffffffffffffffffffffff168173ffffffffffffffffffffffffffffffffffffffff1614156110e0576040517f08c379a00000000000000000000000000000000000000000000000000000000081526004016110d79061345d565b60405180910390fd5b6110e98161150e565b50565b3373ffffffffffffffffffffffffffffffffffffffff168373ffffffffffffffffffffffffffffffffffffffff161461115a576040517f08c379a0000000000000000000000000000000000000000000000000000000008152600401611151906134c9565b60405180910390fd5b611165338383611a02565b505050565b60007f4e2312e0000000000000000000000000000000000000000000000000000000007bffffffffffffffffffffffffffffffffffffffffffffffffffffffff1916827bffffffffffffffffffffffffffffffffffffffffffffffffffffffff191614806111dd57506111dc82611c1f565b5b9050919050565b600081600001549050919050565b600033905090565b815183511461123e576040517f08c379a00000000000000000000000000000000000000000000000000000000081526004016112359061355b565b60405180910390fd5b600073ffffffffffffffffffffffffffffffffffffffff168473ffffffffffffffffffffffffffffffffffffffff1614156112ae576040517f08c379a00000000000000000000000000000000000000000000000000000000081526004016112a5906135ed565b60405180910390fd5b60006112b86111f2565b90506112c8818787878787611d01565b60005b84518110156114795760008582815181106112e9576112e86130e5565b5b602002602001015190506000858381518110611308576113076130e5565b5b60200260200101519050600080600084815260200190815260200160002060008b73ffffffffffffffffffffffffffffffffffffffff1673ffffffffffffffffffffffffffffffffffffffff168152602001908152602001600020549050818110156113a9576040517f08c379a00000000000000000000000000000000000000000000000000000000081526004016113a09061367f565b60405180910390fd5b81810360008085815260200190815260200160002060008c73ffffffffffffffffffffffffffffffffffffffff1673ffffffffffffffffffffffffffffffffffffffff168152602001908152602001600020819055508160008085815260200190815260200160002060008b73ffffffffffffffffffffffffffffffffffffffff1673ffffffffffffffffffffffffffffffffffffffff168152602001908152602001600020600082825461145e919061369f565b925050819055505050508061147290613143565b90506112cb565b508473ffffffffffffffffffffffffffffffffffffffff168673ffffffffffffffffffffffffffffffffffffffff168273ffffffffffffffffffffffffffffffffffffffff167f4a39dc06d4c0dbc64b70af90fd698a233a518aa5d07e595d983b8c0526c8f7fb87876040516114f09291906136f5565b60405180910390a4611506818787878787611d09565b505050505050565b6000600360009054906101000a900473ffffffffffffffffffffffffffffffffffffffff16905081600360006101000a81548173ffffffffffffffffffffffffffffffffffffffff021916908373ffffffffffffffffffffffffffffffffffffffff1602179055508173ffffffffffffffffffffffffffffffffffffffff168173ffffffffffffffffffffffffffffffffffffffff167f8be0079c531659141344cd1fd0a4f28419497f9722a3daafe3b4186f6b6457e060405160405180910390a35050565b6001816000016000828254019250508190555050565b600073ffffffffffffffffffffffffffffffffffffffff168473ffffffffffffffffffffffffffffffffffffffff16141561165a576040517f08c379a00000000000000000000000000000000000000000000000000000000081526004016116519061379e565b60405180910390fd5b60006116646111f2565b90506116858160008761167688611ee1565b61167f88611ee1565b87611d01565b8260008086815260200190815260200160002060008773ffffffffffffffffffffffffffffffffffffffff1673ffffffffffffffffffffffffffffffffffffffff16815260200190815260200160002060008282546116e4919061369f565b925050819055508473ffffffffffffffffffffffffffffffffffffffff16600073ffffffffffffffffffffffffffffffffffffffff168273ffffffffffffffffffffffffffffffffffffffff167fc3d58168c5ae7397731d063d5bbf3d657854427343f4c083240f7aacaa2d0f6287876040516117629291906137be565b60405180910390a461177981600087878787611f5b565b5050505050565b600073ffffffffffffffffffffffffffffffffffffffff168473ffffffffffffffffffffffffffffffffffffffff1614156117f0576040517f08c379a00000000000000000000000000000000000000000000000000000000081526004016117e7906135ed565b60405180910390fd5b60006117fa6111f2565b905061181a81878761180b88611ee1565b61181488611ee1565b87611d01565b600080600086815260200190815260200160002060008873ffffffffffffffffffffffffffffffffffffffff1673ffffffffffffffffffffffffffffffffffffffff168152602001908152602001600020549050838110156118b1576040517f08c379a00000000000000000000000000000000000000000000000000000000081526004016118a89061367f565b60405180910390fd5b83810360008087815260200190815260200160002060008973ffffffffffffffffffffffffffffffffffffffff1673ffffffffffffffffffffffffffffffffffffffff168152602001908152602001600020819055508360008087815260200190815260200160002060008873ffffffffffffffffffffffffffffffffffffffff1673ffffffffffffffffffffffffffffffffffffffff1681526020019081526020016000206000828254611966919061369f565b925050819055508573ffffffffffffffffffffffffffffffffffffffff168773ffffffffffffffffffffffffffffffffffffffff168373ffffffffffffffffffffffffffffffffffffffff167fc3d58168c5ae7397731d063d5bbf3d657854427343f4c083240f7aacaa2d0f6288886040516119e39291906137be565b60405180910390a46119f9828888888888611f5b565b50505050505050565b600073ffffffffffffffffffffffffffffffffffffffff168373ffffffffffffffffffffffffffffffffffffffff161415611a72576040517f08c379a0000000000000000000000000000000000000000000000000000000008152600401611a6990613859565b60405180910390fd5b6000611a7c6111f2565b9050611aac81856000611a8e87611ee1565b611a9787611ee1565b60405180602001604052806000815250611d01565b600080600085815260200190815260200160002060008673ffffffffffffffffffffffffffffffffffffffff1673ffffffffffffffffffffffffffffffffffffffff16815260200190815260200160002054905082811015611b43576040517f08c379a0000000000000000000000000000000000000000000000000000000008152600401611b3a906138eb565b60405180910390fd5b82810360008086815260200190815260200160002060008773ffffffffffffffffffffffffffffffffffffffff1673ffffffffffffffffffffffffffffffffffffffff16815260200190815260200160002081905550600073ffffffffffffffffffffffffffffffffffffffff168573ffffffffffffffffffffffffffffffffffffffff168373ffffffffffffffffffffffffffffffffffffffff167fc3d58168c5ae7397731d063d5bbf3d657854427343f4c083240f7aacaa2d0f628787604051611c109291906137be565b60405180910390a45050505050565b60007fd9b67a26000000000000000000000000000000000000000000000000000000007bffffffffffffffffffffffffffffffffffffffffffffffffffffffff1916827bffffffffffffffffffffffffffffffffffffffffffffffffffffffff19161480611cea57507f0e89341c000000000000000000000000000000000000000000000000000000007bffffffffffffffffffffffffffffffffffffffffffffffffffffffff1916827bffffffffffffffffffffffffffffffffffffffffffffffffffffffff1916145b80611cfa5750611cf982612133565b5b9050919050565b505050505050565b611d288473ffffffffffffffffffffffffffffffffffffffff1661219d565b15611ed9578373ffffffffffffffffffffffffffffffffffffffff1663bc197c8187878686866040518663ffffffff1660e01b8152600401611d6e95949392919061394f565b6020604051808303816000875af1925050508015611daa57506040513d601f19601f82011682018060405250810190611da791906139cc565b60015b611e5057611db6613a06565b806308c379a01415611e135750611dcb613a28565b80611dd65750611e15565b806040517f08c379a0000000000000000000000000000000000000000000000000000000008152600401611e0a9190612443565b60405180910390fd5b505b6040517f08c379a0000000000000000000000000000000000000000000000000000000008152600401611e4790613b30565b60405180910390fd5b63bc197c8160e01b7bffffffffffffffffffffffffffffffffffffffffffffffffffffffff1916817bffffffffffffffffffffffffffffffffffffffffffffffffffffffff191614611ed7576040517f08c379a0000000000000000000000000000000000000000000000000000000008152600401611ece90613bc2565b60405180910390fd5b505b505050505050565b60606000600167ffffffffffffffff811115611f0057611eff612533565b5b604051908082528060200260200182016040528015611f2e5781602001602082028036833780820191505090505b5090508281600081518110611f4657611f456130e5565b5b60200260200101818152505080915050919050565b611f7a8473ffffffffffffffffffffffffffffffffffffffff1661219d565b1561212b578373ffffffffffffffffffffffffffffffffffffffff1663f23a6e6187878686866040518663ffffffff1660e01b8152600401611fc0959493929190613be2565b6020604051808303816000875af1925050508015611ffc57506040513d601f19601f82011682018060405250810190611ff991906139cc565b60015b6120a257612008613a06565b806308c379a01415612065575061201d613a28565b806120285750612067565b806040517f08c379a000000000000000000000000000000000000000000000000000000000815260040161205c9190612443565b60405180910390fd5b505b6040517f08c379a000000000000000000000000000000000000000000000000000000000815260040161209990613b30565b60405180910390fd5b63f23a6e6160e01b7bffffffffffffffffffffffffffffffffffffffffffffffffffffffff1916817bffffffffffffffffffffffffffffffffffffffffffffffffffffffff191614612129576040517f08c379a000000000000000000000000000000000000000000000000000000000815260040161212090613bc2565b60405180910390fd5b505b505050505050565b60007f01ffc9a7000000000000000000000000000000000000000000000000000000007bffffffffffffffffffffffffffffffffffffffffffffffffffffffff1916827bffffffffffffffffffffffffffffffffffffffffffffffffffffffff1916149050919050565b600080823b905060008111915050919050565b6000604051905090565b600080fd5b600080fd5b600073ffffffffffffffffffffffffffffffffffffffff82169050919050565b60006121ef826121c4565b9050919050565b6121ff816121e4565b811461220a57600080fd5b50565b60008135905061221c816121f6565b92915050565b6000819050919050565b61223581612222565b811461224057600080fd5b50565b6000813590506122528161222c565b92915050565b6000806040838503121561226f5761226e6121ba565b5b600061227d8582860161220d565b925050602061228e85828601612243565b9150509250929050565b6122a181612222565b82525050565b60006020820190506122bc6000830184612298565b92915050565b60007fffffffff0000000000000000000000000000000000000000000000000000000082169050919050565b6122f7816122c2565b811461230257600080fd5b50565b600081359050612314816122ee565b92915050565b6000602082840312156123305761232f6121ba565b5b600061233e84828501612305565b91505092915050565b60008115159050919050565b61235c81612347565b82525050565b60006020820190506123776000830184612353565b92915050565b600060208284031215612393576123926121ba565b5b60006123a184828501612243565b91505092915050565b600081519050919050565b600082825260208201905092915050565b60005b838110156123e45780820151818401526020810190506123c9565b838111156123f3576000848401525b50505050565b6000601f19601f8301169050919050565b6000612415826123aa565b61241f81856123b5565b935061242f8185602086016123c6565b612438816123f9565b840191505092915050565b6000602082019050818103600083015261245d818461240a565b905092915050565b6000806000806080858703121561247f5761247e6121ba565b5b600061248d8782880161220d565b945050602061249e8782880161220d565b93505060406124af87828801612243565b92505060606124c087828801612243565b91505092959194509250565b6124d5816121e4565b82525050565b600060a0820190506124f060008301886124cc565b6124fd60208301876124cc565b61250a6040830186612298565b6125176060830185612298565b6125246080830184612353565b9695505050505050565b600080fd5b7f4e487b7100000000000000000000000000000000000000000000000000000000600052604160045260246000fd5b61256b826123f9565b810181811067ffffffffffffffff8211171561258a57612589612533565b5b80604052505050565b600061259d6121b0565b90506125a98282612562565b919050565b600067ffffffffffffffff8211156125c9576125c8612533565b5b602082029050602081019050919050565b600080fd5b60006125f26125ed846125ae565b612593565b90508083825260208201905060208402830185811115612615576126146125da565b5b835b8181101561263e578061262a8882612243565b845260208401935050602081019050612617565b5050509392505050565b600082601f83011261265d5761265c61252e565b5b813561266d8482602086016125df565b91505092915050565b600080fd5b600067ffffffffffffffff82111561269657612695612533565b5b61269f826123f9565b9050602081019050919050565b82818337600083830152505050565b60006126ce6126c98461267b565b612593565b9050828152602081018484840111156126ea576126e9612676565b5b6126f58482856126ac565b509392505050565b600082601f8301126127125761271161252e565b5b81356127228482602086016126bb565b91505092915050565b600080600080600060a08688031215612747576127466121ba565b5b60006127558882890161220d565b95505060206127668882890161220d565b945050604086013567ffffffffffffffff811115612787576127866121bf565b5b61279388828901612648565b935050606086013567ffffffffffffffff8111156127b4576127b36121bf565b5b6127c088828901612648565b925050608086013567ffffffffffffffff8111156127e1576127e06121bf565b5b6127ed888289016126fd565b9150509295509295909350565b600067ffffffffffffffff82111561281557612814612533565b5b602082029050602081019050919050565b6000612839612834846127fa565b612593565b9050808382526020820190506020840283018581111561285c5761285b6125da565b5b835b818110156128855780612871888261220d565b84526020840193505060208101905061285e565b5050509392505050565b600082601f8301126128a4576128a361252e565b5b81356128b4848260208601612826565b91505092915050565b600080604083850312156128d4576128d36121ba565b5b600083013567ffffffffffffffff8111156128f2576128f16121bf565b5b6128fe8582860161288f565b925050602083013567ffffffffffffffff81111561291f5761291e6121bf565b5b61292b85828601612648565b9150509250929050565b600081519050919050565b600082825260208201905092915050565b6000819050602082019050919050565b61296a81612222565b82525050565b600061297c8383612961565b60208301905092915050565b6000602082019050919050565b60006129a082612935565b6129aa8185612940565b93506129b583612951565b8060005b838110156129e65781516129cd8882612970565b97506129d883612988565b9250506001810190506129b9565b5085935050505092915050565b60006020820190508181036000830152612a0d8184612995565b905092915050565b6000602082019050612a2a60008301846124cc565b92915050565b60058110612a3d57600080fd5b50565b600081359050612a4f81612a30565b92915050565b60008060408385031215612a6c57612a6b6121ba565b5b6000612a7a8582860161220d565b9250506020612a8b85828601612a40565b9150509250929050565b612a9e81612347565b8114612aa957600080fd5b50565b600081359050612abb81612a95565b92915050565b60008060408385031215612ad857612ad76121ba565b5b6000612ae68582860161220d565b9250506020612af785828601612aac565b9150509250929050565b600060208284031215612b1757612b166121ba565b5b6000612b258482850161220d565b91505092915050565b7f4e487b7100000000000000000000000000000000000000000000000000000000600052602160045260246000fd5b60058110612b6e57612b6d612b2e565b5b50565b6000819050612b7f82612b5d565b919050565b6000612b8f82612b71565b9050919050565b612b9f81612b84565b82525050565b6000602082019050612bba6000830184612b96565b92915050565b612bc9816122c2565b82525050565b6000602082019050612be46000830184612bc0565b92915050565b600080600060608486031215612c0357612c026121ba565b5b6000612c118682870161220d565b9350506020612c228682870161220d565b9250506040612c3386828701612243565b9150509250925092565b60008060408385031215612c5457612c536121ba565b5b6000612c628582860161220d565b9250506020612c738582860161220d565b9150509250929050565b600080600080600060a08688031215612c9957612c986121ba565b5b6000612ca78882890161220d565b9550506020612cb88882890161220d565b9450506040612cc988828901612243565b9350506060612cda88828901612243565b925050608086013567ffffffffffffffff811115612cfb57612cfa6121bf565b5b612d07888289016126fd565b9150509295509295909350565b600080600060608486031215612d2d57612d2c6121ba565b5b6000612d3b8682870161220d565b9350506020612d4c86828701612243565b9250506040612d5d86828701612243565b9150509250925092565b7f455243313135353a2062616c616e636520717565727920666f7220746865207a60008201527f65726f2061646472657373000000000000000000000000000000000000000000602082015250565b6000612dc3602b836123b5565b9150612dce82612d67565b604082019050919050565b60006020820190508181036000830152612df281612db6565b9050919050565b7f53656e646572206d757374206d6174636820746865206167656e744164647200600082015250565b6000612e2f601f836123b5565b9150612e3a82612df9565b602082019050919050565b60006020820190508181036000830152612e5e81612e22565b9050919050565b600082825260208201905092915050565b50565b6000612e86600083612e65565b9150612e9182612e76565b600082019050919050565b600060a082019050612eb160008301876124cc565b612ebe60208301866124cc565b612ecb6040830185612298565b612ed86060830184612298565b8181036080830152612ee981612e79565b905095945050505050565b7f4e487b7100000000000000000000000000000000000000000000000000000000600052602260045260246000fd5b60006002820490506001821680612f3b57607f821691505b60208210811415612f4f57612f4e612ef4565b5b50919050565b7f53656e646572206d757374206d61746368207468652063736f41646472000000600082015250565b6000612f8b601d836123b5565b9150612f9682612f55565b602082019050919050565b60006020820190508181036000830152612fba81612f7e565b9050919050565b7f455243313135353a207472616e736665722063616c6c6572206973206e6f742060008201527f6f776e6572206e6f7220617070726f7665640000000000000000000000000000602082015250565b600061301d6032836123b5565b915061302882612fc1565b604082019050919050565b6000602082019050818103600083015261304c81613010565b9050919050565b7f455243313135353a206163636f756e747320616e6420696473206c656e67746860008201527f206d69736d617463680000000000000000000000000000000000000000000000602082015250565b60006130af6029836123b5565b91506130ba82613053565b604082019050919050565b600060208201905081810360008301526130de816130a2565b9050919050565b7f4e487b7100000000000000000000000000000000000000000000000000000000600052603260045260246000fd5b7f4e487b7100000000000000000000000000000000000000000000000000000000600052601160045260246000fd5b600061314e82612222565b91507fffffffffffffffffffffffffffffffffffffffffffffffffffffffffffffffff82141561318157613180613114565b5b600182019050919050565b7f4f776e61626c653a2063616c6c6572206973206e6f7420746865206f776e6572600082015250565b60006131c26020836123b5565b91506131cd8261318c565b602082019050919050565b600060208201905081810360008301526131f1816131b5565b9050919050565b7f455243313135353a2073657474696e6720617070726f76616c2073746174757360008201527f20666f722073656c660000000000000000000000000000000000000000000000602082015250565b60006132546029836123b5565b915061325f826131f8565b604082019050919050565b6000602082019050818103600083015261328381613247565b9050919050565b7f53656e646572206d757374206d617463682074686520646f6e6f724164647200600082015250565b60006132c0601f836123b5565b91506132cb8261328a565b602082019050919050565b600060208201905081810360008301526132ef816132b3565b9050919050565b60008160601b9050919050565b600061330e826132f6565b9050919050565b600061332082613303565b9050919050565b613338613333826121e4565b613315565b82525050565b600061334a8284613327565b60148201915081905092915050565b7f455243313135353a2063616c6c6572206973206e6f74206f776e6572206e6f7260008201527f20617070726f7665640000000000000000000000000000000000000000000000602082015250565b60006133b56029836123b5565b91506133c082613359565b604082019050919050565b600060208201905081810360008301526133e4816133a8565b9050919050565b7f4f776e61626c653a206e6577206f776e657220697320746865207a65726f206160008201527f6464726573730000000000000000000000000000000000000000000000000000602082015250565b60006134476026836123b5565b9150613452826133eb565b604082019050919050565b600060208201905081810360008301526134768161343a565b9050919050565b7f53656e646572206d757374206d617463682074686520636c69656e7441646472600082015250565b60006134b36020836123b5565b91506134be8261347d565b602082019050919050565b600060208201905081810360008301526134e2816134a6565b9050919050565b7f455243313135353a2069647320616e6420616d6f756e7473206c656e6774682060008201527f6d69736d61746368000000000000000000000000000000000000000000000000602082015250565b60006135456028836123b5565b9150613550826134e9565b604082019050919050565b6000602082019050818103600083015261357481613538565b9050919050565b7f455243313135353a207472616e7366657220746f20746865207a65726f20616460008201527f6472657373000000000000000000000000000000000000000000000000000000602082015250565b60006135d76025836123b5565b91506135e28261357b565b604082019050919050565b60006020820190508181036000830152613606816135ca565b9050919050565b7f455243313135353a20696e73756666696369656e742062616c616e636520666f60008201527f72207472616e7366657200000000000000000000000000000000000000000000602082015250565b6000613669602a836123b5565b91506136748261360d565b604082019050919050565b600060208201905081810360008301526136988161365c565b9050919050565b60006136aa82612222565b91506136b583612222565b9250827fffffffffffffffffffffffffffffffffffffffffffffffffffffffffffffffff038211156136ea576136e9613114565b5b828201905092915050565b6000604082019050818103600083015261370f8185612995565b905081810360208301526137238184612995565b90509392505050565b7f455243313135353a206d696e7420746f20746865207a65726f2061646472657360008201527f7300000000000000000000000000000000000000000000000000000000000000602082015250565b60006137886021836123b5565b91506137938261372c565b604082019050919050565b600060208201905081810360008301526137b78161377b565b9050919050565b60006040820190506137d36000830185612298565b6137e06020830184612298565b9392505050565b7f455243313135353a206275726e2066726f6d20746865207a65726f206164647260008201527f6573730000000000000000000000000000000000000000000000000000000000602082015250565b60006138436023836123b5565b915061384e826137e7565b604082019050919050565b6000602082019050818103600083015261387281613836565b9050919050565b7f455243313135353a206275726e20616d6f756e7420657863656564732062616c60008201527f616e636500000000000000000000000000000000000000000000000000000000602082015250565b60006138d56024836123b5565b91506138e082613879565b604082019050919050565b60006020820190508181036000830152613904816138c8565b9050919050565b600081519050919050565b60006139218261390b565b61392b8185612e65565b935061393b8185602086016123c6565b613944816123f9565b840191505092915050565b600060a08201905061396460008301886124cc565b61397160208301876124cc565b81810360408301526139838186612995565b905081810360608301526139978185612995565b905081810360808301526139ab8184613916565b90509695505050505050565b6000815190506139c6816122ee565b92915050565b6000602082840312156139e2576139e16121ba565b5b60006139f0848285016139b7565b91505092915050565b60008160e01c9050919050565b600060033d1115613a255760046000803e613a226000516139f9565b90505b90565b600060443d1015613a3857613abb565b613a406121b0565b60043d036004823e80513d602482011167ffffffffffffffff82111715613a68575050613abb565b808201805167ffffffffffffffff811115613a865750505050613abb565b80602083010160043d038501811115613aa3575050505050613abb565b613ab282602001850186612562565b82955050505050505b90565b7f455243313135353a207472616e7366657220746f206e6f6e204552433131353560008201527f526563656976657220696d706c656d656e746572000000000000000000000000602082015250565b6000613b1a6034836123b5565b9150613b2582613abe565b604082019050919050565b60006020820190508181036000830152613b4981613b0d565b9050919050565b7f455243313135353a204552433131353552656365697665722072656a6563746560008201527f6420746f6b656e73000000000000000000000000000000000000000000000000602082015250565b6000613bac6028836123b5565b9150613bb782613b50565b604082019050919050565b60006020820190508181036000830152613bdb81613b9f565b9050919050565b600060a082019050613bf760008301886124cc565b613c0460208301876124cc565b613c116040830186612298565b613c1e6060830185612298565b8181036080830152613c308184613916565b9050969550505050505056fea2646970667358221220b947989c7a2c3e81d7abee41518876c04887acae71f237d15b8d80790490981364736f6c634300080a0033",
  "immutableReferences": {},
  "source": "// SPDX-License-Identifier: Apache-2.0\npragma solidity >=0.7.0 <0.9.0;\n\nimport \"@openzeppelin/contracts/token/ERC1155/ERC1155.sol\";\nimport \"@openzeppelin/contracts/token/ERC1155/utils/ERC1155Receiver.sol\";\nimport \"@openzeppelin/contracts/token/ERC1155/utils/ERC1155Holder.sol\";\nimport \"@openzeppelin/contracts/token/ERC20/ERC20.sol\";\nimport \"@openzeppelin/contracts/access/Ownable.sol\";\nimport \"@openzeppelin/contracts/utils/Counters.sol\";\nimport \"@openzeppelin/contracts/utils/Strings.sol\";\n\n/**\n * Defines 4 roles Donor, Client, CSO, and Agent for sending around value.\n * The Donor mints tokens by sending a wire transfer to the Client who holds the underlying money.\n * The Donor can then give those tokens to the CSO to pay for things in the conflict zone.\n * The CSOs can cash out their tokens with Agents in the conflict zone.\n * Agents cash out thier tokens with the Client outside the conflict zone, at which point the Client can burn the tokens.\n * TODO for all the functions that require some external flow (eg wire transfer, cash exchange) we should add some type of confirmation\n * TODO investigate OpenZepplin AccessControl - at first glance it didn't match our needs but should investigate again\n */\ncontract HawalaCoin is ERC1155, ERC1155Receiver, ERC1155Holder, Ownable  {\n    using Counters for Counters.Counter;\n    \n    Counters.Counter _tokenCounter;\n    \n    mapping(address => Role) public users;\n    enum Role {NONE, DONOR, CLIENT, CSO, AGENT}\n\n    Counters.Counter _missionCounter;\n    struct Mission {\n        address csoAddr;\n        address agentAddr;\n        uint256 tokenId;\n        uint256 amount;\n        bool completed;\n    }\n    mapping(uint256 => Mission) public missions;\n    \n    // TODO add events\n    \n    /**\n     * Called by the contract owner\n     */\n    constructor() ERC1155(\"\") {}\n    \n    /**\n     * Bubble supportsInterface down the class hierarchy\n     */\n    function supportsInterface(bytes4 interfaceId) public view virtual override(ERC1155, ERC1155Receiver) returns (bool) {\n        return super.supportsInterface(interfaceId);\n    }\n    \n    /**\n     * TODO add rules:\n     * 1) DONOR can only be added by contract owner\n     * 2) CLIENT can only be added by DONOR\n     * 3) CSO can only be added by DONOR\n     * 4) AGENT can only be added by CLIENT\n     * TODO add check if user already exists - error or update?\n     */\n    function addUser(address addr, Role role) public {\n        users[addr] = role;\n    }\n    \n    /**\n     * Mints an amount of new tokens for the Donor which are redeamable at the Client\n     * TODO add rule: only Donor can call\n     * TODO add currency field, right now we assume amount in USD in pennies\n     * TODO add some type of verification/confirmation to ensure minted tokens truly reflect new bank balance\n     */\n    function mint(address donorAddr, address clientAddr, uint256 amount) public {\n        require(donorAddr == msg.sender, \"Sender must match the donorAddr\");\n        uint256 tokenId = _tokenCounter.current();\n        _tokenCounter.increment();\n        _mint(donorAddr, tokenId, amount, abi.encodePacked(clientAddr));\n    }\n    \n    /**\n     * TODO add rule: only Client can call\n     */\n    function burn(address clientAddr, uint256 tokenId, uint256 amount) public {\n        require(clientAddr == msg.sender, \"Sender must match the clientAddr\");\n        _burn(msg.sender, tokenId, amount);\n    }\n    \n    /**\n     * TODO add rule: only CSO can call\n     * Creates mission for a specific agent and transfers tokens to contract for escrow\n     */\n    function createMission(address csoAddr, address agentAddr, uint256 tokenId, uint256 amount) public {\n        require(csoAddr == msg.sender, \"Sender must match the csoAddr\");\n        uint256 missionId = _missionCounter.current();\n        missions[missionId] = Mission({\n           csoAddr: csoAddr,\n           agentAddr: agentAddr,\n           tokenId: tokenId,\n           amount: amount,\n           completed: false\n        });\n        this.safeTransferFrom(csoAddr, address(this), tokenId, amount, \"\");\n    }\n    \n    /**\n     * TODO add rule: only Agent can call\n     * TODO add functionality to allow for partial mission completions which would return some amount back to CSO\n     */\n    function completeMission(address agentAddr, uint256 missionId) public {\n        require(agentAddr == msg.sender, \"Sender must match the agentAddr\");\n        uint256 tokenId = missions[missionId].tokenId;\n        uint256 amount = missions[missionId].amount;\n        missions[missionId].completed = true;\n        this.safeTransferFrom(address(this), agentAddr, tokenId, amount, \"\");\n    }\n}\n",
  "sourcePath": "/Users/jsaur/projects/tmp/hawalacoin/truffle/contracts/HawalaCoin.sol",
  "compiler": {
    "name": "solc",
    "version": "0.8.10+commit.fc410830.Emscripten.clang"
  },
  "schemaVersion": "3.4.3",
  "updatedAt": "2021-11-17T12:07:25.793Z",
  "devdoc": {
    "kind": "dev",
    "methods": {
      "balanceOf(address,uint256)": {
        "details": "See {IERC1155-balanceOf}. Requirements: - `account` cannot be the zero address."
      },
      "balanceOfBatch(address[],uint256[])": {
        "details": "See {IERC1155-balanceOfBatch}. Requirements: - `accounts` and `ids` must have the same length."
      },
      "isApprovedForAll(address,address)": {
        "details": "See {IERC1155-isApprovedForAll}."
      },
      "owner()": {
        "details": "Returns the address of the current owner."
      },
      "renounceOwnership()": {
        "details": "Leaves the contract without owner. It will not be possible to call `onlyOwner` functions anymore. Can only be called by the current owner. NOTE: Renouncing ownership will leave the contract without an owner, thereby removing any functionality that is only available to the owner."
      },
      "safeBatchTransferFrom(address,address,uint256[],uint256[],bytes)": {
        "details": "See {IERC1155-safeBatchTransferFrom}."
      },
      "safeTransferFrom(address,address,uint256,uint256,bytes)": {
        "details": "See {IERC1155-safeTransferFrom}."
      },
      "setApprovalForAll(address,bool)": {
        "details": "See {IERC1155-setApprovalForAll}."
      },
      "transferOwnership(address)": {
        "details": "Transfers ownership of the contract to a new account (`newOwner`). Can only be called by the current owner."
      },
      "uri(uint256)": {
        "details": "See {IERC1155MetadataURI-uri}. This implementation returns the same URI for *all* token types. It relies on the token type ID substitution mechanism https://eips.ethereum.org/EIPS/eip-1155#metadata[defined in the EIP]. Clients calling this function must replace the `\\{id\\}` substring with the actual token type ID."
      }
    },
    "version": 1
  },
  "userdoc": {
    "kind": "user",
    "methods": {
      "addUser(address,uint8)": {
        "notice": "TODO add rules: 1) DONOR can only be added by contract owner 2) CLIENT can only be added by DONOR 3) CSO can only be added by DONOR 4) AGENT can only be added by CLIENT TODO add check if user already exists - error or update?"
      },
      "burn(address,uint256,uint256)": {
        "notice": "TODO add rule: only Client can call"
      },
      "completeMission(address,uint256)": {
        "notice": "TODO add rule: only Agent can call TODO add functionality to allow for partial mission completions which would return some amount back to CSO"
      },
      "constructor": {
        "notice": "Called by the contract owner"
      },
      "createMission(address,address,uint256,uint256)": {
        "notice": "TODO add rule: only CSO can call Creates mission for a specific agent and transfers tokens to contract for escrow"
      },
      "mint(address,address,uint256)": {
        "notice": "Mints an amount of new tokens for the Donor which are redeamable at the Client TODO add rule: only Donor can call TODO add currency field, right now we assume amount in USD in pennies TODO add some type of verification/confirmation to ensure minted tokens truly reflect new bank balance"
      },
      "supportsInterface(bytes4)": {
        "notice": "Bubble supportsInterface down the class hierarchy"
      }
    },
    "notice": "Defines 4 roles Donor, Client, CSO, and Agent for sending around value. The Donor mints tokens by sending a wire transfer to the Client who holds the underlying money. The Donor can then give those tokens to the CSO to pay for things in the conflict zone. The CSOs can cash out their tokens with Agents in the conflict zone. Agents cash out thier tokens with the Client outside the conflict zone, at which point the Client can burn the tokens. TODO for all the functions that require some external flow (eg wire transfer, cash exchange) we should add some type of confirmation TODO investigate OpenZepplin AccessControl - at first glance it didn't match our needs but should investigate again",
    "version": 1
  }
}